{
  "abi": [
    {
      "inputs": [
        {
          "internalType": "address[]",
          "name": "pools",
          "type": "address[]"
        },
        {
          "internalType": "address[]",
          "name": "dexes",
          "type": "address[]"
        },
        {
          "internalType": "bool[]",
          "name": "dexIsUniV3",
          "type": "bool[]"
        },
        {
          "internalType": "address",
          "name": "weth",
          "type": "address"
        },
        {
          "internalType": "uint256",
          "name": "wethInPoolThreshold",
          "type": "uint256"
        }
      ],
      "stateMutability": "nonpayable",
      "type": "constructor"
    },
    {
      "inputs": [
        {
          "internalType": "address",
          "name": "",
          "type": "address"
        }
      ],
      "name": "tokenToWethPrices",
      "outputs": [
        {
          "internalType": "uint128",
          "name": "",
          "type": "uint128"
        }
      ],
      "stateMutability": "view",
      "type": "function"
    }
  ],
  "bytecode": {
    "object": "0x60806040523480156200001157600080fd5b506040516200215538038062002155833981810160405281019062000037919062001682565b6000855167ffffffffffffffff81111562000057576200005662001370565b5b604051908082528060200260200182016040528015620000865781602001602082028036833780820191505090505b50905060005b865181101562000271576000878281518110620000ae57620000ad62001767565b5b602002602001015173ffffffffffffffffffffffffffffffffffffffff16630dfe16816040518163ffffffff1660e01b8152600401602060405180830381865afa15801562000101573d6000803e3d6000fd5b505050506040513d601f19601f8201168201806040525081019062000127919062001796565b9050600088838151811062000141576200014062001767565b5b602002602001015173ffffffffffffffffffffffffffffffffffffffff1663d21220a76040518163ffffffff1660e01b8152600401602060405180830381865afa15801562000194573d6000803e3d6000fd5b505050506040513d601f19601f82011682018060405250810190620001ba919062001796565b9050600080620001ef8b8681518110620001d957620001d862001767565b5b60200260200101518585620002a260201b60201c565b9150915060006200020b858a858e8e8d6200048760201b60201c565b9050600062000225858b858f8f8e6200048760201b60201c565b90508082620002359190620017f7565b8888815181106200024b576200024a62001767565b5b60200260200101818152505050505050505080620002699062001832565b90506200008c565b506000816040516020016200028791906200194d565b60405160208183030381529060405290506020810180590381f35b600080600080620002b9876200052660201b60201c565b1562000367576000808873ffffffffffffffffffffffffffffffffffffffff16630902f1ac6040518163ffffffff1660e01b8152600401606060405180830381865afa1580156200030e573d6000803e3d6000fd5b505050506040513d601f19601f82011682018060405250810190620003349190620019fd565b5091509150816dffffffffffffffffffffffffffff169350806dffffffffffffffffffffffffffff169250505062000383565b6200037a8787876200056460201b60201c565b80925081935050505b6200047982828873ffffffffffffffffffffffffffffffffffffffff1663313ce5676040518163ffffffff1660e01b8152600401602060405180830381865afa158015620003d5573d6000803e3d6000fd5b505050506040513d601f19601f82011682018060405250810190620003fb919062001a97565b8873ffffffffffffffffffffffffffffffffffffffff1663313ce5676040518163ffffffff1660e01b8152600401602060405180830381865afa15801562000447573d6000803e3d6000fd5b505050506040513d601f19601f820116820180604052508101906200046d919062001a97565b6200074160201b60201c565b935093505050935093915050565b600080600090505b845181101562000516576000620004eb898989898681518110620004b857620004b762001767565b5b6020026020010151898781518110620004d657620004d562001767565b5b6020026020010151896200080560201b60201c565b905060008114620005015780925050506200051c565b50806200050e9062001832565b90506200048f565b50600090505b9695505050505050565b6000807fddca3f43000000000000000000000000000000000000000000000000000000006000526000806004600080875af190508015915050919050565b60008060008573ffffffffffffffffffffffffffffffffffffffff16633850c7bd6040518163ffffffff1660e01b815260040160e060405180830381865afa158015620005b5573d6000803e3d6000fd5b505050506040513d601f19601f82011682018060405250810190620005db919062001b77565b505050505050905060008673ffffffffffffffffffffffffffffffffffffffff16631a6865026040518163ffffffff1660e01b8152600401602060405180830381865afa15801562000631573d6000803e3d6000fd5b505050506040513d601f19601f8201168201806040525081019062000657919062001c77565b905060006200069d838773ffffffffffffffffffffffffffffffffffffffff168973ffffffffffffffffffffffffffffffffffffffff1610898962000c9960201b60201c565b90506000620006e3848873ffffffffffffffffffffffffffffffffffffffff168a73ffffffffffffffffffffffffffffffffffffffff1610898b62000c9960201b60201c565b90506200070982846fffffffffffffffffffffffffffffffff1662000ea360201b60201c565b6200072d82856fffffffffffffffffffffffffffffffff1662000ea360201b60201c565b809650819750505050505050935093915050565b60008060128460ff161115620007815760128462000760919062001ca9565b600a6200076e919062001e39565b866200077b919062001eb9565b6200079e565b83601262000790919062001ca9565b866200079d919062001e39565b5b915060128360ff161115620007dd57601283620007bc919062001ca9565b600a620007ca919062001e39565b85620007d7919062001eb9565b620007fa565b826012620007ec919062001ca9565b85620007f9919062001e39565b5b905094509492505050565b60008573ffffffffffffffffffffffffffffffffffffffff168773ffffffffffffffffffffffffffffffffffffffff1603620008445784905062000c8f565b60008060008973ffffffffffffffffffffffffffffffffffffffff1673ffffffffffffffffffffffffffffffffffffffff16815260200190815260200160002060009054906101000a90046fffffffffffffffffffffffffffffffff1690506000816fffffffffffffffffffffffffffffffff1614620008d957620008d0818762000ea360201b60201c565b91505062000c8f565b831562000abb57600060405180606001604052806101f461ffff168152602001610bb861ffff16815260200161271061ffff16815250905060005b600381101562000ab35760008773ffffffffffffffffffffffffffffffffffffffff16631698ee828b73ffffffffffffffffffffffffffffffffffffffff168d73ffffffffffffffffffffffffffffffffffffffff161062000977578b62000979565b8c5b8d73ffffffffffffffffffffffffffffffffffffffff168d73ffffffffffffffffffffffffffffffffffffffff1610620009b4578d620009b6565b8c5b868660038110620009cc57620009cb62001767565b5b60200201516040518463ffffffff1660e01b8152600401620009f19392919062001f54565b602060405180830381865afa15801562000a0f573d6000803e3d6000fd5b505050506040513d601f19601f8201168201806040525081019062000a35919062001796565b9050600073ffffffffffffffffffffffffffffffffffffffff168173ffffffffffffffffffffffffffffffffffffffff161462000a9e57600062000a838c8b8d858b62000f8d60201b60201c565b90506000811462000a9c57809550505050505062000c8f565b505b508062000aab9062001832565b905062000914565b505062000c89565b60008773ffffffffffffffffffffffffffffffffffffffff168973ffffffffffffffffffffffffffffffffffffffff1610905060008673ffffffffffffffffffffffffffffffffffffffff1663e6a439058362000b19578a62000b1b565b8b5b8462000b28578c62000b2a565b8b5b6040518363ffffffff1660e01b815260040162000b4992919062001f91565b602060405180830381865afa15801562000b67573d6000803e3d6000fd5b505050506040513d601f19601f8201168201806040525081019062000b8d919062001796565b905060008062000bc1838562000ba4578c62000ba6565b8d5b8662000bb3578e62000bb5565b8d5b620002a260201b60201c565b91509150600073ffffffffffffffffffffffffffffffffffffffff168373ffffffffffffffffffffffffffffffffffffffff161462000c8457831562000c1f578682101562000c195760009550505050505062000c8f565b62000c38565b8681101562000c375760009550505050505062000c8f565b5b62000c7762000c6a8562000c4d578362000c4f565b825b8662000c5c578362000c5e565b845b620010e160201b60201c565b8b62000ea360201b60201c565b9550505050505062000c8f565b505050505b60009150505b9695505050505050565b6000808273ffffffffffffffffffffffffffffffffffffffff1663313ce5676040518163ffffffff1660e01b8152600401602060405180830381865afa15801562000ce8573d6000803e3d6000fd5b505050506040513d601f19601f8201168201806040525081019062000d0e919062001a97565b8473ffffffffffffffffffffffffffffffffffffffff1663313ce5676040518163ffffffff1660e01b8152600401602060405180830381865afa15801562000d5a573d6000803e3d6000fd5b505050506040513d601f19601f8201168201806040525081019062000d80919062001a97565b0390506000808260000b1262000db5578160ff16600a0a8773ffffffffffffffffffffffffffffffffffffffff160262000de9565b8160000360ff16600a0a8773ffffffffffffffffffffffffffffffffffffffff168162000de75762000de662001e8a565b5b045b90508562000e2957602081901c6fffffffffffffffffffffffffffffffff1667ffffffffffffffff8162000e225762000e2162001e8a565b5b0462000e2f565b602081901c5b92506fffffffffffffffffffffffffffffffff836fffffffffffffffffffffffffffffffff16111562000e99576040517f08c379a000000000000000000000000000000000000000000000000000000000815260040162000e90906200201f565b60405180910390fd5b5050949350505050565b60008082148062000ec657506000836fffffffffffffffffffffffffffffffff16145b1562000ed6576000905062000f87565b600060406fffffffffffffffffffffffffffffffff8416856fffffffffffffffffffffffffffffffff1602901c90506000608084901c856fffffffffffffffffffffffffffffffff1602905077ffffffffffffffffffffffffffffffffffffffffffffffff81111562000f4857600080fd5b604081901b9050817fffffffffffffffffffffffffffffffffffffffffffffffffffffffffffffffff0381111562000f7f57600080fd5b818101925050505b92915050565b6000808473ffffffffffffffffffffffffffffffffffffffff168773ffffffffffffffffffffffffffffffffffffffff1610905060008062000fd7868a896200056460201b60201c565b91509150821562000ffe578482101562000ff85760009350505050620010d8565b62001015565b84811015620010145760009350505050620010d8565b5b60008362001035576200102f8383620010e160201b60201c565b62001048565b620010478284620010e160201b60201c565b5b9050806000808c73ffffffffffffffffffffffffffffffffffffffff1673ffffffffffffffffffffffffffffffffffffffff16815260200190815260200160002060006101000a8154816fffffffffffffffffffffffffffffffff02191690836fffffffffffffffffffffffffffffffff160217905550620010d1818a62000ea360201b60201c565b9450505050505b95945050505050565b6000808203620010f057600080fd5b600077ffffffffffffffffffffffffffffffffffffffffffffffff8411620011325782604085901b8162001129576200112862001e8a565b5b049050620012e6565b600060c09050600060c086901c905064010000000081106200115c57602081901c90506020820191505b6201000081106200117557601081901c90506010820191505b61010081106200118d57600881901c90506008820191505b60108110620011a457600481901c90506004820191505b60048110620011bb57600281901c90506002820191505b60028110620011cb576001820191505b600160bf830360018703901c018260ff0387901b81620011f057620011ef62001e8a565b5b0492506fffffffffffffffffffffffffffffffff83111562001249576040517f08c379a0000000000000000000000000000000000000000000000000000000008152600401620012409062002091565b60405180910390fd5b6000608086901c8402905060006fffffffffffffffffffffffffffffffff871685029050600060c089901c9050600060408a901b9050828110156200128f576001820391505b8281039050608084901b925082811015620012ab576001820391505b8281039050608084901c8214620012c757620012c6620020b3565b5b888181620012da57620012d962001e8a565b5b04870196505050505050505b6fffffffffffffffffffffffffffffffff8111156200133c576040517f08c379a0000000000000000000000000000000000000000000000000000000008152600401620013339062002132565b60405180910390fd5b8091505092915050565b6000604051905090565b600080fd5b600080fd5b600080fd5b6000601f19601f8301169050919050565b7f4e487b7100000000000000000000000000000000000000000000000000000000600052604160045260246000fd5b620013aa826200135f565b810181811067ffffffffffffffff82111715620013cc57620013cb62001370565b5b80604052505050565b6000620013e162001346565b9050620013ef82826200139f565b919050565b600067ffffffffffffffff82111562001412576200141162001370565b5b602082029050602081019050919050565b600080fd5b600073ffffffffffffffffffffffffffffffffffffffff82169050919050565b6000620014558262001428565b9050919050565b620014678162001448565b81146200147357600080fd5b50565b60008151905062001487816200145c565b92915050565b6000620014a46200149e84620013f4565b620013d5565b90508083825260208201905060208402830185811115620014ca57620014c962001423565b5b835b81811015620014f75780620014e2888262001476565b845260208401935050602081019050620014cc565b5050509392505050565b600082601f8301126200151957620015186200135a565b5b81516200152b8482602086016200148d565b91505092915050565b600067ffffffffffffffff82111562001552576200155162001370565b5b602082029050602081019050919050565b60008115159050919050565b6200157a8162001563565b81146200158657600080fd5b50565b6000815190506200159a816200156f565b92915050565b6000620015b7620015b18462001534565b620013d5565b90508083825260208201905060208402830185811115620015dd57620015dc62001423565b5b835b818110156200160a5780620015f5888262001589565b845260208401935050602081019050620015df565b5050509392505050565b600082601f8301126200162c576200162b6200135a565b5b81516200163e848260208601620015a0565b91505092915050565b6000819050919050565b6200165c8162001647565b81146200166857600080fd5b50565b6000815190506200167c8162001651565b92915050565b600080600080600060a08688031215620016a157620016a062001350565b5b600086015167ffffffffffffffff811115620016c257620016c162001355565b5b620016d08882890162001501565b955050602086015167ffffffffffffffff811115620016f457620016f362001355565b5b620017028882890162001501565b945050604086015167ffffffffffffffff81111562001726576200172562001355565b5b620017348882890162001614565b9350506060620017478882890162001476565b92505060806200175a888289016200166b565b9150509295509295909350565b7f4e487b7100000000000000000000000000000000000000000000000000000000600052603260045260246000fd5b600060208284031215620017af57620017ae62001350565b5b6000620017bf8482850162001476565b91505092915050565b7f4e487b7100000000000000000000000000000000000000000000000000000000600052601160045260246000fd5b6000620018048262001647565b9150620018118362001647565b92508282019050808211156200182c576200182b620017c8565b5b92915050565b60006200183f8262001647565b91507fffffffffffffffffffffffffffffffffffffffffffffffffffffffffffffffff8203620018745762001873620017c8565b5b600182019050919050565b600081519050919050565b600082825260208201905092915050565b6000819050602082019050919050565b620018b68162001647565b82525050565b6000620018ca8383620018ab565b60208301905092915050565b6000602082019050919050565b6000620018f0826200187f565b620018fc81856200188a565b935062001909836200189b565b8060005b8381101562001940578151620019248882620018bc565b97506200193183620018d6565b9250506001810190506200190d565b5085935050505092915050565b60006020820190508181036000830152620019698184620018e3565b905092915050565b60006dffffffffffffffffffffffffffff82169050919050565b620019968162001971565b8114620019a257600080fd5b50565b600081519050620019b6816200198b565b92915050565b600063ffffffff82169050919050565b620019d781620019bc565b8114620019e357600080fd5b50565b600081519050620019f781620019cc565b92915050565b60008060006060848603121562001a195762001a1862001350565b5b600062001a2986828701620019a5565b935050602062001a3c86828701620019a5565b925050604062001a4f86828701620019e6565b9150509250925092565b600060ff82169050919050565b62001a718162001a59565b811462001a7d57600080fd5b50565b60008151905062001a918162001a66565b92915050565b60006020828403121562001ab05762001aaf62001350565b5b600062001ac08482850162001a80565b91505092915050565b62001ad48162001428565b811462001ae057600080fd5b50565b60008151905062001af48162001ac9565b92915050565b60008160020b9050919050565b62001b128162001afa565b811462001b1e57600080fd5b50565b60008151905062001b328162001b07565b92915050565b600061ffff82169050919050565b62001b518162001b38565b811462001b5d57600080fd5b50565b60008151905062001b718162001b46565b92915050565b600080600080600080600060e0888a03121562001b995762001b9862001350565b5b600062001ba98a828b0162001ae3565b975050602062001bbc8a828b0162001b21565b965050604062001bcf8a828b0162001b60565b955050606062001be28a828b0162001b60565b945050608062001bf58a828b0162001b60565b93505060a062001c088a828b0162001a80565b92505060c062001c1b8a828b0162001589565b91505092959891949750929550565b60006fffffffffffffffffffffffffffffffff82169050919050565b62001c518162001c2a565b811462001c5d57600080fd5b50565b60008151905062001c718162001c46565b92915050565b60006020828403121562001c905762001c8f62001350565b5b600062001ca08482850162001c60565b91505092915050565b600062001cb68262001a59565b915062001cc38362001a59565b9250828203905060ff81111562001cdf5762001cde620017c8565b5b92915050565b60008160011c9050919050565b6000808291508390505b600185111562001d445780860481111562001d1c5762001d1b620017c8565b5b600185161562001d2c5780820291505b808102905062001d3c8562001ce5565b945062001cfc565b94509492505050565b60008262001d5f576001905062001e32565b8162001d6f576000905062001e32565b816001811462001d88576002811462001d935762001dc9565b600191505062001e32565b60ff84111562001da85762001da7620017c8565b5b8360020a91508482111562001dc25762001dc1620017c8565b5b5062001e32565b5060208310610133831016604e8410600b841016171562001e035782820a90508381111562001dfd5762001dfc620017c8565b5b62001e32565b62001e12848484600162001cf2565b9250905081840481111562001e2c5762001e2b620017c8565b5b81810290505b9392505050565b600062001e468262001647565b915062001e538362001a59565b925062001e827fffffffffffffffffffffffffffffffffffffffffffffffffffffffffffffffff848462001d4d565b905092915050565b7f4e487b7100000000000000000000000000000000000000000000000000000000600052601260045260246000fd5b600062001ec68262001647565b915062001ed38362001647565b92508262001ee65762001ee562001e8a565b5b828204905092915050565b62001efc8162001448565b82525050565b600062ffffff82169050919050565b6000819050919050565b600062001f3c62001f3662001f308462001b38565b62001f11565b62001f02565b9050919050565b62001f4e8162001f1b565b82525050565b600060608201905062001f6b600083018662001ef1565b62001f7a602083018562001ef1565b62001f89604083018462001f43565b949350505050565b600060408201905062001fa8600083018562001ef1565b62001fb7602083018462001ef1565b9392505050565b600082825260208201905092915050565b7f4f766572666c6f7720696e2066726f6d53717274583936000000000000000000600082015250565b60006200200760178362001fbe565b9150620020148262001fcf565b602082019050919050565b600060208201905081810360008301526200203a8162001ff8565b9050919050565b7f6f766572666c6f7720696e206469767575000000000000000000000000000000600082015250565b60006200207960118362001fbe565b9150620020868262002041565b602082019050919050565b60006020820190508181036000830152620020ac816200206a565b9050919050565b7f4e487b7100000000000000000000000000000000000000000000000000000000600052600160045260246000fd5b7f6f766572666c6f7720696e206469767575206c61737400000000000000000000600082015250565b60006200211a60168362001fbe565b91506200212782620020e2565b602082019050919050565b600060208201905081810360008301526200214d816200210b565b905091905056fe",
    "linkReferences": {}
  },
  "deployedBytecode": {
    "object": "0x608060405234801561001057600080fd5b506004361061002b5760003560e01c80630ed45c8e14610030575b600080fd5b61004a600480360381019061004591906100f2565b610060565b604051610057919061014a565b60405180910390f35b60006020528060005260406000206000915054906101000a90046fffffffffffffffffffffffffffffffff1681565b600080fd5b600073ffffffffffffffffffffffffffffffffffffffff82169050919050565b60006100bf82610094565b9050919050565b6100cf816100b4565b81146100da57600080fd5b50565b6000813590506100ec816100c6565b92915050565b6000602082840312156101085761010761008f565b5b6000610116848285016100dd565b91505092915050565b60006fffffffffffffffffffffffffffffffff82169050919050565b6101448161011f565b82525050565b600060208201905061015f600083018461013b565b9291505056fea26469706673582212206be6943aaeb28711af6a51559b877f36403269cb7995397e63674446f7c96d3764736f6c63430008100033",
    "linkReferences": {}
  },
  "methodIdentifiers": {
    "tokenToWethPrices(address)": "0ed45c8e"
  },
  "id": 0
}