{
    "abi": [
        {
            "inputs": [
                {
                    "internalType": "address[]",
                    "name": "pools",
                    "type": "address[]"
                },
                {
                    "internalType": "address[]",
                    "name": "dexes",
                    "type": "address[]"
                },
                {
                    "internalType": "bool[]",
                    "name": "dexIsUniV3",
                    "type": "bool[]"
                },
                {
                    "internalType": "address",
                    "name": "weth",
                    "type": "address"
                },
                {
                    "internalType": "uint256",
                    "name": "wethInPoolThreshold",
                    "type": "uint256"
                }
            ],
            "stateMutability": "nonpayable",
            "type": "constructor"
        },
        {
            "inputs": [
                {
                    "internalType": "address",
                    "name": "",
                    "type": "address"
                }
            ],
            "name": "tokenToWethPrices",
            "outputs": [
                {
                    "internalType": "uint128",
                    "name": "",
                    "type": "uint128"
                }
            ],
            "stateMutability": "view",
            "type": "function"
        }
    ],
    "bytecode": {
        "object": "0x60806040523480156200001157600080fd5b5060405162002211380380620022118339818101604052810190620000379190620018a3565b6000855167ffffffffffffffff81111562000057576200005662001591565b5b604051908082528060200260200182016040528015620000865781602001602082028036833780820191505090505b50905060005b86518110156200032d57620000c4878281518110620000b057620000af62001988565b5b60200260200101516200035e60201b60201c565b620002f4576000878281518110620000e157620000e062001988565b5b602002602001015173ffffffffffffffffffffffffffffffffffffffff16630dfe16816040518163ffffffff1660e01b8152600401602060405180830381865afa15801562000134573d6000803e3d6000fd5b505050506040513d601f19601f820116820180604052508101906200015a9190620019b7565b9050600088838151811062000174576200017362001988565b5b602002602001015173ffffffffffffffffffffffffffffffffffffffff1663d21220a76040518163ffffffff1660e01b8152600401602060405180830381865afa158015620001c7573d6000803e3d6000fd5b505050506040513d601f19601f82011682018060405250810190620001ed9190620019b7565b905062000200826200035e60201b60201c565b1580156200021c57506200021a816200035e60201b60201c565b155b15620002c757600080620002558b86815181106200023f576200023e62001988565b5b602002602001015185856200039360201b60201c565b91509150600062000271858a858e8e8d6200050b60201b60201c565b905060006200028b858b858f8f8e6200050b60201b60201c565b905080826200029b919062001a18565b888881518110620002b157620002b062001988565b5b60200260200101818152505050505050620002ec565b6000848481518110620002df57620002de62001988565b5b6020026020010181815250505b505062000319565b60008282815181106200030c576200030b62001988565b5b6020026020010181815250505b80620003259062001a53565b90506200008c565b5060008160405160200162000343919062001b6e565b60405160208183030381529060405290506020810180590381f35b6000808273ffffffffffffffffffffffffffffffffffffffff163b036200038957600190506200038e565b600090505b919050565b600080600080620003aa87620006a460201b60201c565b1562000458576000808873ffffffffffffffffffffffffffffffffffffffff16630902f1ac6040518163ffffffff1660e01b8152600401606060405180830381865afa158015620003ff573d6000803e3d6000fd5b505050506040513d601f19601f8201168201806040525081019062000425919062001c1e565b5091509150816dffffffffffffffffffffffffffff169350806dffffffffffffffffffffffffffff1692505050620004e9565b6000806200046d888a620006e260201b60201c565b9150915060008062000486898c620006e260201b60201c565b91509150828015620004955750805b15620004e4578873ffffffffffffffffffffffffffffffffffffffff168a73ffffffffffffffffffffffffffffffffffffffff161015620004dc57839550819450620004e3565b8394508195505b5b505050505b620004fd828288886200084360201b60201c565b935093505050935093915050565b6000806000808973ffffffffffffffffffffffffffffffffffffffff1673ffffffffffffffffffffffffffffffffffffffff16815260200190815260200160002060009054906101000a90046fffffffffffffffffffffffffffffffff1690506001816fffffffffffffffffffffffffffffffff1603620005915760009150506200069a565b60005b85518110156200061d576000620005f18a8a8a868b8781518110620005be57620005bd62001988565b5b60200260200101518b8881518110620005dc57620005db62001988565b5b60200260200101518b6200096960201b60201c565b90506000811462000608578093505050506200069a565b5080620006159062001a53565b905062000594565b5060016000808a73ffffffffffffffffffffffffffffffffffffffff1673ffffffffffffffffffffffffffffffffffffffff16815260200190815260200160002060006101000a8154816fffffffffffffffffffffffffffffffff02191690836fffffffffffffffffffffffffffffffff16021790555060009150505b9695505050505050565b6000807fddca3f43000000000000000000000000000000000000000000000000000000006000526000806004600080875af190508015915050919050565b6000806000808573ffffffffffffffffffffffffffffffffffffffff168560405160240162000712919062001c8b565b6040516020818303038152906040527f70a08231000000000000000000000000000000000000000000000000000000007bffffffffffffffffffffffffffffffffffffffffffffffffffffffff19166020820180517bffffffffffffffffffffffffffffffffffffffffffffffffffffffff83818316178352505050506040516200079e919062001d21565b6000604051808303816000865af19150503d8060008114620007dd576040519150601f19603f3d011682016040523d82523d6000602084013e620007e2565b606091505b5091509150811562000832576000602082510362000822578180602001905181019062000810919062001d3a565b9050806001945094505050506200083c565b600080945094505050506200083c565b6000809350935050505b9250929050565b6000806000806200085a8662000d0b60201b60201c565b91509150600080620008728762000d0b60201b60201c565b91509150828015620008815750805b156200095c5760128460ff161115620008c457601284620008a3919062001d79565b600a620008b1919062001f09565b8a620008be919062001f89565b620008ef565b836012620008d3919062001d79565b600a620008e1919062001f09565b8a620008ee919062001fc1565b5b955060128260ff1611156200092e576012826200090d919062001d79565b600a6200091b919062001f09565b8962000928919062001f89565b62000959565b8160126200093d919062001d79565b600a6200094b919062001f09565b8962000958919062001fc1565b5b94505b5050505094509492505050565b60008673ffffffffffffffffffffffffffffffffffffffff168873ffffffffffffffffffffffffffffffffffffffff1603620009a85785905062000d00565b6001856fffffffffffffffffffffffffffffffff161115620009de57620009d6858762000e8360201b60201c565b905062000d00565b821562000bbf57600060405180606001604052806101f461ffff168152602001610bb861ffff16815260200161271061ffff16815250905060005b600381101562000bb75760008673ffffffffffffffffffffffffffffffffffffffff16631698ee828b73ffffffffffffffffffffffffffffffffffffffff168d73ffffffffffffffffffffffffffffffffffffffff161062000a7c578b62000a7e565b8c5b8c73ffffffffffffffffffffffffffffffffffffffff168e73ffffffffffffffffffffffffffffffffffffffff161062000ab9578d62000abb565b8c5b86866003811062000ad15762000ad062001988565b5b60200201516040518463ffffffff1660e01b815260040162000af69392919062002082565b602060405180830381865afa15801562000b14573d6000803e3d6000fd5b505050506040513d601f19601f8201168201806040525081019062000b3a9190620019b7565b9050600073ffffffffffffffffffffffffffffffffffffffff168173ffffffffffffffffffffffffffffffffffffffff161462000ba257600062000b888c8b8d858a62000fdd60201b60201c565b90506000811462000ba0578094505050505062000d00565b505b508062000baf9062001a53565b905062000a19565b505062000cfb565b60008773ffffffffffffffffffffffffffffffffffffffff168973ffffffffffffffffffffffffffffffffffffffff1610905060008573ffffffffffffffffffffffffffffffffffffffff1663e6a439058362000c1d578a62000c1f565b8b5b8462000c2c578c62000c2e565b8b5b6040518363ffffffff1660e01b815260040162000c4d929190620020bf565b602060405180830381865afa15801562000c6b573d6000803e3d6000fd5b505050506040513d601f19601f8201168201806040525081019062000c919190620019b7565b9050600073ffffffffffffffffffffffffffffffffffffffff168173ffffffffffffffffffffffffffffffffffffffff161462000cf857600062000cdf8b8a8c8589620011f160201b60201c565b90506000811462000cf65780935050505062000d00565b505b50505b600090505b979650505050505050565b6000806000808473ffffffffffffffffffffffffffffffffffffffff166040516024016040516020818303038152906040527f313ce567000000000000000000000000000000000000000000000000000000007bffffffffffffffffffffffffffffffffffffffffffffffffffffffff19166020820180517bffffffffffffffffffffffffffffffffffffffffffffffffffffffff838183161783525050505060405162000dba919062001d21565b6000604051808303816000865af19150503d806000811462000df9576040519150601f19603f3d011682016040523d82523d6000602084013e62000dfe565b606091505b5091509150811562000e74576000602082510362000e64578180602001905181019062000e2c919062001d3a565b9050600081148062000e3e575060ff81115b1562000e54576000809450945050505062000e7e565b8060019450945050505062000e7e565b6000809450945050505062000e7e565b6000809350935050505b915091565b60008082148062000ea657506000836fffffffffffffffffffffffffffffffff16145b1562000eb6576000905062000fd7565b600060406fffffffffffffffffffffffffffffffff8416856fffffffffffffffffffffffffffffffff1602901c90506000608084901c856fffffffffffffffffffffffffffffffff1602905077ffffffffffffffffffffffffffffffffffffffffffffffff81111562000f60576040517f08c379a000000000000000000000000000000000000000000000000000000000815260040162000f57906200214d565b60405180910390fd5b604081901b9050817fffffffffffffffffffffffffffffffffffffffffffffffffffffffffffffffff0381111562000fcf576040517f08c379a000000000000000000000000000000000000000000000000000000000815260040162000fc690620021bf565b60405180910390fd5b818101925050505b92915050565b600080600062000ff58589886200039360201b60201c565b915091506000806200108884848a73ffffffffffffffffffffffffffffffffffffffff168d73ffffffffffffffffffffffffffffffffffffffff16106200103d578a6200103f565b8c5b8b73ffffffffffffffffffffffffffffffffffffffff168e73ffffffffffffffffffffffffffffffffffffffff16106200107a578d6200107c565b8b5b6200084360201b60201c565b915091508773ffffffffffffffffffffffffffffffffffffffff168a73ffffffffffffffffffffffffffffffffffffffff161015620010de5785811015620010d8576000945050505050620011e8565b620010f6565b85821015620010f5576000945050505050620011e8565b5b60008873ffffffffffffffffffffffffffffffffffffffff168b73ffffffffffffffffffffffffffffffffffffffff161062001144576200113e83836200135e60201b60201c565b62001157565b6200115682846200135e60201b60201c565b5b9050806000808d73ffffffffffffffffffffffffffffffffffffffff1673ffffffffffffffffffffffffffffffffffffffff16815260200190815260200160002060006101000a8154816fffffffffffffffffffffffffffffffff02191690836fffffffffffffffffffffffffffffffff160217905550620011e0818b62000e8360201b60201c565b955050505050505b95945050505050565b6000808473ffffffffffffffffffffffffffffffffffffffff168773ffffffffffffffffffffffffffffffffffffffff161090506000806200125786846200123a57886200123c565b8a5b8562001249578b6200124b565b895b6200039360201b60201c565b9150915082156200127e578481101562001278576000935050505062001355565b62001295565b8482101562001294576000935050505062001355565b5b6000620012c584620012a85783620012aa565b825b85620012b75783620012b9565b845b6200135e60201b60201c565b9050806000808c73ffffffffffffffffffffffffffffffffffffffff1673ffffffffffffffffffffffffffffffffffffffff16815260200190815260200160002060006101000a8154816fffffffffffffffffffffffffffffffff02191690836fffffffffffffffffffffffffffffffff1602179055506200134e818a62000e8360201b60201c565b9450505050505b95945050505050565b600080820362001372576000905062001561565b600077ffffffffffffffffffffffffffffffffffffffffffffffff8411620013b45782604085901b81620013ab57620013aa62001f5a565b5b04905062001538565b600060c09050600060c086901c90506401000000008110620013de57602081901c90506020820191505b620100008110620013f757601081901c90506010820191505b61010081106200140f57600881901c90506008820191505b601081106200142657600481901c90506004820191505b600481106200143d57600281901c90506002820191505b600281106200144d576001820191505b600160bf830360018703901c018260ff0387901b8162001472576200147162001f5a565b5b0492506fffffffffffffffffffffffffffffffff8311156200149b576000935050505062001561565b6000608086901c8402905060006fffffffffffffffffffffffffffffffff871685029050600060c089901c9050600060408a901b905082811015620014e1576001820391505b8281039050608084901b925082811015620014fd576001820391505b8281039050608084901c8214620015195762001518620021e1565b5b8881816200152c576200152b62001f5a565b5b04870196505050505050505b6fffffffffffffffffffffffffffffffff8111156200155c57600091505062001561565b809150505b92915050565b6000604051905090565b600080fd5b600080fd5b600080fd5b6000601f19601f8301169050919050565b7f4e487b7100000000000000000000000000000000000000000000000000000000600052604160045260246000fd5b620015cb8262001580565b810181811067ffffffffffffffff82111715620015ed57620015ec62001591565b5b80604052505050565b60006200160262001567565b9050620016108282620015c0565b919050565b600067ffffffffffffffff82111562001633576200163262001591565b5b602082029050602081019050919050565b600080fd5b600073ffffffffffffffffffffffffffffffffffffffff82169050919050565b6000620016768262001649565b9050919050565b620016888162001669565b81146200169457600080fd5b50565b600081519050620016a8816200167d565b92915050565b6000620016c5620016bf8462001615565b620015f6565b90508083825260208201905060208402830185811115620016eb57620016ea62001644565b5b835b8181101562001718578062001703888262001697565b845260208401935050602081019050620016ed565b5050509392505050565b600082601f8301126200173a57620017396200157b565b5b81516200174c848260208601620016ae565b91505092915050565b600067ffffffffffffffff82111562001773576200177262001591565b5b602082029050602081019050919050565b60008115159050919050565b6200179b8162001784565b8114620017a757600080fd5b50565b600081519050620017bb8162001790565b92915050565b6000620017d8620017d28462001755565b620015f6565b90508083825260208201905060208402830185811115620017fe57620017fd62001644565b5b835b818110156200182b5780620018168882620017aa565b84526020840193505060208101905062001800565b5050509392505050565b600082601f8301126200184d576200184c6200157b565b5b81516200185f848260208601620017c1565b91505092915050565b6000819050919050565b6200187d8162001868565b81146200188957600080fd5b50565b6000815190506200189d8162001872565b92915050565b600080600080600060a08688031215620018c257620018c162001571565b5b600086015167ffffffffffffffff811115620018e357620018e262001576565b5b620018f18882890162001722565b955050602086015167ffffffffffffffff81111562001915576200191462001576565b5b620019238882890162001722565b945050604086015167ffffffffffffffff81111562001947576200194662001576565b5b620019558882890162001835565b9350506060620019688882890162001697565b92505060806200197b888289016200188c565b9150509295509295909350565b7f4e487b7100000000000000000000000000000000000000000000000000000000600052603260045260246000fd5b600060208284031215620019d057620019cf62001571565b5b6000620019e08482850162001697565b91505092915050565b7f4e487b7100000000000000000000000000000000000000000000000000000000600052601160045260246000fd5b600062001a258262001868565b915062001a328362001868565b925082820190508082111562001a4d5762001a4c620019e9565b5b92915050565b600062001a608262001868565b91507fffffffffffffffffffffffffffffffffffffffffffffffffffffffffffffffff820362001a955762001a94620019e9565b5b600182019050919050565b600081519050919050565b600082825260208201905092915050565b6000819050602082019050919050565b62001ad78162001868565b82525050565b600062001aeb838362001acc565b60208301905092915050565b6000602082019050919050565b600062001b118262001aa0565b62001b1d818562001aab565b935062001b2a8362001abc565b8060005b8381101562001b6157815162001b45888262001add565b975062001b528362001af7565b92505060018101905062001b2e565b5085935050505092915050565b6000602082019050818103600083015262001b8a818462001b04565b905092915050565b60006dffffffffffffffffffffffffffff82169050919050565b62001bb78162001b92565b811462001bc357600080fd5b50565b60008151905062001bd78162001bac565b92915050565b600063ffffffff82169050919050565b62001bf88162001bdd565b811462001c0457600080fd5b50565b60008151905062001c188162001bed565b92915050565b60008060006060848603121562001c3a5762001c3962001571565b5b600062001c4a8682870162001bc6565b935050602062001c5d8682870162001bc6565b925050604062001c708682870162001c07565b9150509250925092565b62001c858162001669565b82525050565b600060208201905062001ca2600083018462001c7a565b92915050565b600081519050919050565b600081905092915050565b60005b8381101562001cde57808201518184015260208101905062001cc1565b60008484015250505050565b600062001cf78262001ca8565b62001d03818562001cb3565b935062001d1581856020860162001cbe565b80840191505092915050565b600062001d2f828462001cea565b915081905092915050565b60006020828403121562001d535762001d5262001571565b5b600062001d63848285016200188c565b91505092915050565b600060ff82169050919050565b600062001d868262001d6c565b915062001d938362001d6c565b9250828203905060ff81111562001daf5762001dae620019e9565b5b92915050565b60008160011c9050919050565b6000808291508390505b600185111562001e145780860481111562001dec5762001deb620019e9565b5b600185161562001dfc5780820291505b808102905062001e0c8562001db5565b945062001dcc565b94509492505050565b60008262001e2f576001905062001f02565b8162001e3f576000905062001f02565b816001811462001e58576002811462001e635762001e99565b600191505062001f02565b60ff84111562001e785762001e77620019e9565b5b8360020a91508482111562001e925762001e91620019e9565b5b5062001f02565b5060208310610133831016604e8410600b841016171562001ed35782820a90508381111562001ecd5762001ecc620019e9565b5b62001f02565b62001ee2848484600162001dc2565b9250905081840481111562001efc5762001efb620019e9565b5b81810290505b9392505050565b600062001f168262001868565b915062001f238362001d6c565b925062001f527fffffffffffffffffffffffffffffffffffffffffffffffffffffffffffffffff848462001e1d565b905092915050565b7f4e487b7100000000000000000000000000000000000000000000000000000000600052601260045260246000fd5b600062001f968262001868565b915062001fa38362001868565b92508262001fb65762001fb562001f5a565b5b828204905092915050565b600062001fce8262001868565b915062001fdb8362001868565b9250817fffffffffffffffffffffffffffffffffffffffffffffffffffffffffffffffff0483118215151615620020175762002016620019e9565b5b828202905092915050565b600061ffff82169050919050565b600062ffffff82169050919050565b6000819050919050565b60006200206a620020646200205e8462002022565b6200203f565b62002030565b9050919050565b6200207c8162002049565b82525050565b600060608201905062002099600083018662001c7a565b620020a8602083018562001c7a565b620020b7604083018462002071565b949350505050565b6000604082019050620020d6600083018562001c7a565b620020e5602083018462001c7a565b9392505050565b600082825260208201905092915050565b7f6f766572666c6f772d3020696e206d756c363455000000000000000000000000600082015250565b600062002135601483620020ec565b91506200214282620020fd565b602082019050919050565b60006020820190508181036000830152620021688162002126565b9050919050565b7f6f766572666c6f772d3120696e206d756c363455000000000000000000000000600082015250565b6000620021a7601483620020ec565b9150620021b4826200216f565b602082019050919050565b60006020820190508181036000830152620021da8162002198565b9050919050565b7f4e487b7100000000000000000000000000000000000000000000000000000000600052600160045260246000fdfe",
        "linkReferences": {}
    },
    "deployedBytecode": {
        "object": "0x608060405234801561001057600080fd5b506004361061002b5760003560e01c80630ed45c8e14610030575b600080fd5b61004a600480360381019061004591906100f2565b610060565b604051610057919061014a565b60405180910390f35b60006020528060005260406000206000915054906101000a90046fffffffffffffffffffffffffffffffff1681565b600080fd5b600073ffffffffffffffffffffffffffffffffffffffff82169050919050565b60006100bf82610094565b9050919050565b6100cf816100b4565b81146100da57600080fd5b50565b6000813590506100ec816100c6565b92915050565b6000602082840312156101085761010761008f565b5b6000610116848285016100dd565b91505092915050565b60006fffffffffffffffffffffffffffffffff82169050919050565b6101448161011f565b82525050565b600060208201905061015f600083018461013b565b9291505056fea26469706673582212203e6ccb0aebaf815fec7c338344b5a9c95613b631c923d0ec1d2800b23b7480fd64736f6c63430008100033",
        "linkReferences": {}
    },
    "methodIdentifiers": {
        "tokenToWethPrices(address)": "0ed45c8e"
    },
    "id": 0
}