{
    "abi": [
        {
            "inputs": [
                {
                    "internalType": "address[]",
                    "name": "pools",
                    "type": "address[]"
                },
                {
                    "internalType": "address[]",
                    "name": "dexes",
                    "type": "address[]"
                },
                {
                    "internalType": "bool[]",
                    "name": "dexIsUniV3",
                    "type": "bool[]"
                },
                {
                    "internalType": "address",
                    "name": "weth",
                    "type": "address"
                },
                {
                    "internalType": "uint256",
                    "name": "wethInPoolThreshold",
                    "type": "uint256"
                }
            ],
            "stateMutability": "nonpayable",
            "type": "constructor"
        },
        {
            "inputs": [
                {
                    "internalType": "address",
                    "name": "",
                    "type": "address"
                }
            ],
            "name": "tokenToWethPrices",
            "outputs": [
                {
                    "internalType": "uint128",
                    "name": "",
                    "type": "uint128"
                }
            ],
            "stateMutability": "view",
            "type": "function"
        }
    ],
    "bytecode": {
        "object": "0x60806040523480156200001157600080fd5b506040516200215f3803806200215f83398181016040528101906200003791906200169d565b6000855167ffffffffffffffff8111156200005757620000566200138b565b5b604051908082528060200260200182016040528015620000865781602001602082028036833780820191505090505b50905060005b865181101562000271576000878281518110620000ae57620000ad62001782565b5b602002602001015173ffffffffffffffffffffffffffffffffffffffff16630dfe16816040518163ffffffff1660e01b8152600401602060405180830381865afa15801562000101573d6000803e3d6000fd5b505050506040513d601f19601f82011682018060405250810190620001279190620017b1565b9050600088838151811062000141576200014062001782565b5b602002602001015173ffffffffffffffffffffffffffffffffffffffff1663d21220a76040518163ffffffff1660e01b8152600401602060405180830381865afa15801562000194573d6000803e3d6000fd5b505050506040513d601f19601f82011682018060405250810190620001ba9190620017b1565b9050600080620001ef8b8681518110620001d957620001d862001782565b5b60200260200101518585620002a260201b60201c565b9150915060006200020b858a858e8e8d6200048560201b60201c565b9050600062000225858b858f8f8e6200048560201b60201c565b9050808262000235919062001812565b8888815181106200024b576200024a62001782565b5b6020026020010181815250505050505050508062000269906200184d565b90506200008c565b5060008160405160200162000287919062001968565b60405160208183030381529060405290506020810180590381f35b600080600080620002b9876200061e60201b60201c565b1562000367576000808873ffffffffffffffffffffffffffffffffffffffff16630902f1ac6040518163ffffffff1660e01b8152600401606060405180830381865afa1580156200030e573d6000803e3d6000fd5b505050506040513d601f19601f8201168201806040525081019062000334919062001a18565b5091509150816dffffffffffffffffffffffffffff169350806dffffffffffffffffffffffffffff169250505062000381565b62000378876200065c60201b60201c565b80925081935050505b6200047782828873ffffffffffffffffffffffffffffffffffffffff1663313ce5676040518163ffffffff1660e01b8152600401602060405180830381865afa158015620003d3573d6000803e3d6000fd5b505050506040513d601f19601f82011682018060405250810190620003f9919062001ab2565b8873ffffffffffffffffffffffffffffffffffffffff1663313ce5676040518163ffffffff1660e01b8152600401602060405180830381865afa15801562000445573d6000803e3d6000fd5b505050506040513d601f19601f820116820180604052508101906200046b919062001ab2565b620008d160201b60201c565b935093505050935093915050565b6000806000808973ffffffffffffffffffffffffffffffffffffffff1673ffffffffffffffffffffffffffffffffffffffff16815260200190815260200160002060009054906101000a90046fffffffffffffffffffffffffffffffff1690506001816fffffffffffffffffffffffffffffffff16036200050b57600091505062000614565b60005b8551811015620005975760006200056b8a8a8a868b878151811062000538576200053762001782565b5b60200260200101518b888151811062000556576200055562001782565b5b60200260200101518b620009b160201b60201c565b905060008114620005825780935050505062000614565b50806200058f906200184d565b90506200050e565b5060016000808a73ffffffffffffffffffffffffffffffffffffffff1673ffffffffffffffffffffffffffffffffffffffff16815260200190815260200160002060006101000a8154816fffffffffffffffffffffffffffffffff02191690836fffffffffffffffffffffffffffffffff16021790555060009150505b9695505050505050565b6000807fddca3f43000000000000000000000000000000000000000000000000000000006000526000806004600080875af190508015915050919050565b60008060008373ffffffffffffffffffffffffffffffffffffffff16633850c7bd6040518163ffffffff1660e01b815260040160e060405180830381865afa158015620006ad573d6000803e3d6000fd5b505050506040513d601f19601f82011682018060405250810190620006d3919062001b92565b505050505050905060008473ffffffffffffffffffffffffffffffffffffffff16631a6865026040518163ffffffff1660e01b8152600401602060405180830381865afa15801562000729573d6000803e3d6000fd5b505050506040513d601f19601f820116820180604052508101906200074f919062001c92565b905060008273ffffffffffffffffffffffffffffffffffffffff1678010000000000000000000000000000000000000000000000008162000795576200079462001cc4565b5b0478ffffffffffffffffffffffffffffffffffffffffffffffffff1690506000606068010000000000000000846fffffffffffffffffffffffffffffffff16168302901c905060006060846fffffffffffffffffffffffffffffffff16901c830290506000606068010000000000000000866fffffffffffffffffffffffffffffffff16168773ffffffffffffffffffffffffffffffffffffffff1602901c905060006060866fffffffffffffffffffffffffffffffff16901c8773ffffffffffffffffffffffffffffffffffffffff16029050606083901b9250606081901b90506fffffffffffffffffffffffffffffffff80168311156200089757600080fd5b6fffffffffffffffffffffffffffffffff8016811115620008b757600080fd5b838301828201809950819a50505050505050505050915091565b60008060128460ff1611156200091157601284620008f0919062001cf3565b600a620008fe919062001e83565b866200090b919062001ed4565b6200093c565b83601262000920919062001cf3565b600a6200092e919062001e83565b866200093b919062001f0c565b5b915060128360ff1611156200097b576012836200095a919062001cf3565b600a62000968919062001e83565b8562000975919062001ed4565b620009a6565b8260126200098a919062001cf3565b600a62000998919062001e83565b85620009a5919062001f0c565b5b905094509492505050565b60008673ffffffffffffffffffffffffffffffffffffffff168873ffffffffffffffffffffffffffffffffffffffff1603620009f05785905062000d48565b6001856fffffffffffffffffffffffffffffffff16111562000a265762000a1e858762000d5360201b60201c565b905062000d48565b821562000c0757600060405180606001604052806101f461ffff168152602001610bb861ffff16815260200161271061ffff16815250905060005b600381101562000bff5760008673ffffffffffffffffffffffffffffffffffffffff16631698ee828b73ffffffffffffffffffffffffffffffffffffffff168d73ffffffffffffffffffffffffffffffffffffffff161062000ac4578b62000ac6565b8c5b8d73ffffffffffffffffffffffffffffffffffffffff168d73ffffffffffffffffffffffffffffffffffffffff161062000b01578d62000b03565b8c5b86866003811062000b195762000b1862001782565b5b60200201516040518463ffffffff1660e01b815260040162000b3e9392919062001fd0565b602060405180830381865afa15801562000b5c573d6000803e3d6000fd5b505050506040513d601f19601f8201168201806040525081019062000b829190620017b1565b9050600073ffffffffffffffffffffffffffffffffffffffff168173ffffffffffffffffffffffffffffffffffffffff161462000bea57600062000bd08c8b8d858a62000e3d60201b60201c565b90506000811462000be8578094505050505062000d48565b505b508062000bf7906200184d565b905062000a61565b505062000d43565b60008773ffffffffffffffffffffffffffffffffffffffff168973ffffffffffffffffffffffffffffffffffffffff1610905060008573ffffffffffffffffffffffffffffffffffffffff1663e6a439058362000c65578a62000c67565b8b5b8462000c74578c62000c76565b8b5b6040518363ffffffff1660e01b815260040162000c959291906200200d565b602060405180830381865afa15801562000cb3573d6000803e3d6000fd5b505050506040513d601f19601f8201168201806040525081019062000cd99190620017b1565b9050600073ffffffffffffffffffffffffffffffffffffffff168173ffffffffffffffffffffffffffffffffffffffff161462000d4057600062000d278b8a8c858962000f8f60201b60201c565b90506000811462000d3e5780935050505062000d48565b505b50505b600090505b979650505050505050565b60008082148062000d7657506000836fffffffffffffffffffffffffffffffff16145b1562000d86576000905062000e37565b600060406fffffffffffffffffffffffffffffffff8416856fffffffffffffffffffffffffffffffff1602901c90506000608084901c856fffffffffffffffffffffffffffffffff1602905077ffffffffffffffffffffffffffffffffffffffffffffffff81111562000df857600080fd5b604081901b9050817fffffffffffffffffffffffffffffffffffffffffffffffffffffffffffffffff0381111562000e2f57600080fd5b818101925050505b92915050565b6000808473ffffffffffffffffffffffffffffffffffffffff168773ffffffffffffffffffffffffffffffffffffffff1610905060008062000e85866200065c60201b60201c565b91509150821562000eac578482101562000ea6576000935050505062000f86565b62000ec3565b8481101562000ec2576000935050505062000f86565b5b60008362000ee35762000edd8383620010fc60201b60201c565b62000ef6565b62000ef58284620010fc60201b60201c565b5b9050806000808c73ffffffffffffffffffffffffffffffffffffffff1673ffffffffffffffffffffffffffffffffffffffff16815260200190815260200160002060006101000a8154816fffffffffffffffffffffffffffffffff02191690836fffffffffffffffffffffffffffffffff16021790555062000f7f818a62000d5360201b60201c565b9450505050505b95945050505050565b6000808473ffffffffffffffffffffffffffffffffffffffff168773ffffffffffffffffffffffffffffffffffffffff1610905060008062000ff5868462000fd8578862000fda565b8a5b8562000fe7578b62000fe9565b895b620002a260201b60201c565b9150915082156200101c5784821015620010165760009350505050620010f3565b62001033565b84811015620010325760009350505050620010f3565b5b6000620010638462001046578362001048565b825b8562001055578362001057565b845b620010fc60201b60201c565b9050806000808c73ffffffffffffffffffffffffffffffffffffffff1673ffffffffffffffffffffffffffffffffffffffff16815260200190815260200160002060006101000a8154816fffffffffffffffffffffffffffffffff02191690836fffffffffffffffffffffffffffffffff160217905550620010ec818a62000d5360201b60201c565b9450505050505b95945050505050565b60008082036200110b57600080fd5b600077ffffffffffffffffffffffffffffffffffffffffffffffff84116200114d5782604085901b8162001144576200114362001cc4565b5b04905062001301565b600060c09050600060c086901c905064010000000081106200117757602081901c90506020820191505b6201000081106200119057601081901c90506010820191505b6101008110620011a857600881901c90506008820191505b60108110620011bf57600481901c90506004820191505b60048110620011d657600281901c90506002820191505b60028110620011e6576001820191505b600160bf830360018703901c018260ff0387901b816200120b576200120a62001cc4565b5b0492506fffffffffffffffffffffffffffffffff83111562001264576040517f08c379a00000000000000000000000000000000000000000000000000000000081526004016200125b906200209b565b60405180910390fd5b6000608086901c8402905060006fffffffffffffffffffffffffffffffff871685029050600060c089901c9050600060408a901b905082811015620012aa576001820391505b8281039050608084901b925082811015620012c6576001820391505b8281039050608084901c8214620012e257620012e1620020bd565b5b888181620012f557620012f462001cc4565b5b04870196505050505050505b6fffffffffffffffffffffffffffffffff81111562001357576040517f08c379a00000000000000000000000000000000000000000000000000000000081526004016200134e906200213c565b60405180910390fd5b8091505092915050565b6000604051905090565b600080fd5b600080fd5b600080fd5b6000601f19601f8301169050919050565b7f4e487b7100000000000000000000000000000000000000000000000000000000600052604160045260246000fd5b620013c5826200137a565b810181811067ffffffffffffffff82111715620013e757620013e66200138b565b5b80604052505050565b6000620013fc62001361565b90506200140a8282620013ba565b919050565b600067ffffffffffffffff8211156200142d576200142c6200138b565b5b602082029050602081019050919050565b600080fd5b600073ffffffffffffffffffffffffffffffffffffffff82169050919050565b6000620014708262001443565b9050919050565b620014828162001463565b81146200148e57600080fd5b50565b600081519050620014a28162001477565b92915050565b6000620014bf620014b9846200140f565b620013f0565b90508083825260208201905060208402830185811115620014e557620014e46200143e565b5b835b81811015620015125780620014fd888262001491565b845260208401935050602081019050620014e7565b5050509392505050565b600082601f83011262001534576200153362001375565b5b815162001546848260208601620014a8565b91505092915050565b600067ffffffffffffffff8211156200156d576200156c6200138b565b5b602082029050602081019050919050565b60008115159050919050565b62001595816200157e565b8114620015a157600080fd5b50565b600081519050620015b5816200158a565b92915050565b6000620015d2620015cc846200154f565b620013f0565b90508083825260208201905060208402830185811115620015f857620015f76200143e565b5b835b81811015620016255780620016108882620015a4565b845260208401935050602081019050620015fa565b5050509392505050565b600082601f83011262001647576200164662001375565b5b815162001659848260208601620015bb565b91505092915050565b6000819050919050565b620016778162001662565b81146200168357600080fd5b50565b60008151905062001697816200166c565b92915050565b600080600080600060a08688031215620016bc57620016bb6200136b565b5b600086015167ffffffffffffffff811115620016dd57620016dc62001370565b5b620016eb888289016200151c565b955050602086015167ffffffffffffffff8111156200170f576200170e62001370565b5b6200171d888289016200151c565b945050604086015167ffffffffffffffff81111562001741576200174062001370565b5b6200174f888289016200162f565b9350506060620017628882890162001491565b9250506080620017758882890162001686565b9150509295509295909350565b7f4e487b7100000000000000000000000000000000000000000000000000000000600052603260045260246000fd5b600060208284031215620017ca57620017c96200136b565b5b6000620017da8482850162001491565b91505092915050565b7f4e487b7100000000000000000000000000000000000000000000000000000000600052601160045260246000fd5b60006200181f8262001662565b91506200182c8362001662565b9250828201905080821115620018475762001846620017e3565b5b92915050565b60006200185a8262001662565b91507fffffffffffffffffffffffffffffffffffffffffffffffffffffffffffffffff82036200188f576200188e620017e3565b5b600182019050919050565b600081519050919050565b600082825260208201905092915050565b6000819050602082019050919050565b620018d18162001662565b82525050565b6000620018e58383620018c6565b60208301905092915050565b6000602082019050919050565b60006200190b826200189a565b620019178185620018a5565b93506200192483620018b6565b8060005b838110156200195b5781516200193f8882620018d7565b97506200194c83620018f1565b92505060018101905062001928565b5085935050505092915050565b60006020820190508181036000830152620019848184620018fe565b905092915050565b60006dffffffffffffffffffffffffffff82169050919050565b620019b1816200198c565b8114620019bd57600080fd5b50565b600081519050620019d181620019a6565b92915050565b600063ffffffff82169050919050565b620019f281620019d7565b8114620019fe57600080fd5b50565b60008151905062001a1281620019e7565b92915050565b60008060006060848603121562001a345762001a336200136b565b5b600062001a4486828701620019c0565b935050602062001a5786828701620019c0565b925050604062001a6a8682870162001a01565b9150509250925092565b600060ff82169050919050565b62001a8c8162001a74565b811462001a9857600080fd5b50565b60008151905062001aac8162001a81565b92915050565b60006020828403121562001acb5762001aca6200136b565b5b600062001adb8482850162001a9b565b91505092915050565b62001aef8162001443565b811462001afb57600080fd5b50565b60008151905062001b0f8162001ae4565b92915050565b60008160020b9050919050565b62001b2d8162001b15565b811462001b3957600080fd5b50565b60008151905062001b4d8162001b22565b92915050565b600061ffff82169050919050565b62001b6c8162001b53565b811462001b7857600080fd5b50565b60008151905062001b8c8162001b61565b92915050565b600080600080600080600060e0888a03121562001bb45762001bb36200136b565b5b600062001bc48a828b0162001afe565b975050602062001bd78a828b0162001b3c565b965050604062001bea8a828b0162001b7b565b955050606062001bfd8a828b0162001b7b565b945050608062001c108a828b0162001b7b565b93505060a062001c238a828b0162001a9b565b92505060c062001c368a828b01620015a4565b91505092959891949750929550565b60006fffffffffffffffffffffffffffffffff82169050919050565b62001c6c8162001c45565b811462001c7857600080fd5b50565b60008151905062001c8c8162001c61565b92915050565b60006020828403121562001cab5762001caa6200136b565b5b600062001cbb8482850162001c7b565b91505092915050565b7f4e487b7100000000000000000000000000000000000000000000000000000000600052601260045260246000fd5b600062001d008262001a74565b915062001d0d8362001a74565b9250828203905060ff81111562001d295762001d28620017e3565b5b92915050565b60008160011c9050919050565b6000808291508390505b600185111562001d8e5780860481111562001d665762001d65620017e3565b5b600185161562001d765780820291505b808102905062001d868562001d2f565b945062001d46565b94509492505050565b60008262001da9576001905062001e7c565b8162001db9576000905062001e7c565b816001811462001dd2576002811462001ddd5762001e13565b600191505062001e7c565b60ff84111562001df25762001df1620017e3565b5b8360020a91508482111562001e0c5762001e0b620017e3565b5b5062001e7c565b5060208310610133831016604e8410600b841016171562001e4d5782820a90508381111562001e475762001e46620017e3565b5b62001e7c565b62001e5c848484600162001d3c565b9250905081840481111562001e765762001e75620017e3565b5b81810290505b9392505050565b600062001e908262001662565b915062001e9d8362001a74565b925062001ecc7fffffffffffffffffffffffffffffffffffffffffffffffffffffffffffffffff848462001d97565b905092915050565b600062001ee18262001662565b915062001eee8362001662565b92508262001f015762001f0062001cc4565b5b828204905092915050565b600062001f198262001662565b915062001f268362001662565b9250817fffffffffffffffffffffffffffffffffffffffffffffffffffffffffffffffff048311821515161562001f625762001f61620017e3565b5b828202905092915050565b62001f788162001463565b82525050565b600062ffffff82169050919050565b6000819050919050565b600062001fb862001fb262001fac8462001b53565b62001f8d565b62001f7e565b9050919050565b62001fca8162001f97565b82525050565b600060608201905062001fe7600083018662001f6d565b62001ff6602083018562001f6d565b62002005604083018462001fbf565b949350505050565b600060408201905062002024600083018562001f6d565b62002033602083018462001f6d565b9392505050565b600082825260208201905092915050565b7f6f766572666c6f7720696e206469767575000000000000000000000000000000600082015250565b6000620020836011836200203a565b915062002090826200204b565b602082019050919050565b60006020820190508181036000830152620020b68162002074565b9050919050565b7f4e487b7100000000000000000000000000000000000000000000000000000000600052600160045260246000fd5b7f6f766572666c6f7720696e206469767575206c61737400000000000000000000600082015250565b6000620021246016836200203a565b91506200213182620020ec565b602082019050919050565b60006020820190508181036000830152620021578162002115565b905091905056fe",
        "linkReferences": {}
    },
    "deployedBytecode": {
        "object": "0x608060405234801561001057600080fd5b506004361061002b5760003560e01c80630ed45c8e14610030575b600080fd5b61004a600480360381019061004591906100f2565b610060565b604051610057919061014a565b60405180910390f35b60006020528060005260406000206000915054906101000a90046fffffffffffffffffffffffffffffffff1681565b600080fd5b600073ffffffffffffffffffffffffffffffffffffffff82169050919050565b60006100bf82610094565b9050919050565b6100cf816100b4565b81146100da57600080fd5b50565b6000813590506100ec816100c6565b92915050565b6000602082840312156101085761010761008f565b5b6000610116848285016100dd565b91505092915050565b60006fffffffffffffffffffffffffffffffff82169050919050565b6101448161011f565b82525050565b600060208201905061015f600083018461013b565b9291505056fea26469706673582212208dc6964f637b9b94e29ada0b697a9e6d04f169ef328ad133cf10e88bbc8684e964736f6c63430008100033",
        "linkReferences": {}
    },
    "methodIdentifiers": {
        "tokenToWethPrices(address)": "0ed45c8e"
    },
    "id": 0
}