{
    "abi": [
        {
            "inputs": [
                {
                    "internalType": "address[]",
                    "name": "pools",
                    "type": "address[]"
                },
                {
                    "internalType": "address[]",
                    "name": "dexes",
                    "type": "address[]"
                },
                {
                    "internalType": "bool[]",
                    "name": "dexIsUniV3",
                    "type": "bool[]"
                },
                {
                    "internalType": "address",
                    "name": "weth",
                    "type": "address"
                },
                {
                    "internalType": "uint256",
                    "name": "wethInPoolThreshold",
                    "type": "uint256"
                }
            ],
            "stateMutability": "nonpayable",
            "type": "constructor"
        },
        {
            "inputs": [
                {
                    "internalType": "address",
                    "name": "",
                    "type": "address"
                }
            ],
            "name": "tokenToWethPrices",
            "outputs": [
                {
                    "internalType": "uint128",
                    "name": "",
                    "type": "uint128"
                }
            ],
            "stateMutability": "view",
            "type": "function"
        }
    ],
    "bytecode": {
        "object": "0x60806040523480156200001157600080fd5b506040516200280338038062002803833981810160405281019062000037919062001bae565b6000855167ffffffffffffffff8111156200005757620000566200189c565b5b604051908082528060200260200182016040528015620000865781602001602082028036833780820191505090505b50905060005b86518110156200032d57620000c4878281518110620000b057620000af62001c93565b5b60200260200101516200035e60201b60201c565b620002f4576000878281518110620000e157620000e062001c93565b5b602002602001015173ffffffffffffffffffffffffffffffffffffffff16630dfe16816040518163ffffffff1660e01b8152600401602060405180830381865afa15801562000134573d6000803e3d6000fd5b505050506040513d601f19601f820116820180604052508101906200015a919062001cc2565b9050600088838151811062000174576200017362001c93565b5b602002602001015173ffffffffffffffffffffffffffffffffffffffff1663d21220a76040518163ffffffff1660e01b8152600401602060405180830381865afa158015620001c7573d6000803e3d6000fd5b505050506040513d601f19601f82011682018060405250810190620001ed919062001cc2565b905062000200826200035e60201b60201c565b1580156200021c57506200021a816200035e60201b60201c565b155b15620002c757600080620002558b86815181106200023f576200023e62001c93565b5b602002602001015185856200039360201b60201c565b91509150600062000271858a858e8e8d620004c960201b60201c565b905060006200028b858b858f8f8e620004c960201b60201c565b905080826200029b919062001d23565b888881518110620002b157620002b062001c93565b5b60200260200101818152505050505050620002ec565b6000848481518110620002df57620002de62001c93565b5b6020026020010181815250505b505062000319565b60008282815181106200030c576200030b62001c93565b5b6020026020010181815250505b80620003259062001d5e565b90506200008c565b5060008160405160200162000343919062001e79565b60405160208183030381529060405290506020810180590381f35b6000808273ffffffffffffffffffffffffffffffffffffffff163b036200038957600190506200038e565b600090505b919050565b600080600080620003aa876200066260201b60201c565b1562000458576000808873ffffffffffffffffffffffffffffffffffffffff16630902f1ac6040518163ffffffff1660e01b8152600401606060405180830381865afa158015620003ff573d6000803e3d6000fd5b505050506040513d601f19601f8201168201806040525081019062000425919062001f29565b5091509150816dffffffffffffffffffffffffffff169350806dffffffffffffffffffffffffffff1692505050620004a7565b6000806200046d888a620006a060201b60201c565b9150915060008062000486898c620006a060201b60201c565b91509150828015620004955750805b15620004a2578395508194505b505050505b620004bb828288886200080160201b60201c565b935093505050935093915050565b6000806000808973ffffffffffffffffffffffffffffffffffffffff1673ffffffffffffffffffffffffffffffffffffffff16815260200190815260200160002060009054906101000a90046fffffffffffffffffffffffffffffffff1690506001816fffffffffffffffffffffffffffffffff16036200054f57600091505062000658565b60005b8551811015620005db576000620005af8a8a8a868b87815181106200057c576200057b62001c93565b5b60200260200101518b88815181106200059a576200059962001c93565b5b60200260200101518b6200092760201b60201c565b905060008114620005c65780935050505062000658565b5080620005d39062001d5e565b905062000552565b5060016000808a73ffffffffffffffffffffffffffffffffffffffff1673ffffffffffffffffffffffffffffffffffffffff16815260200190815260200160002060006101000a8154816fffffffffffffffffffffffffffffffff02191690836fffffffffffffffffffffffffffffffff16021790555060009150505b9695505050505050565b6000807fddca3f43000000000000000000000000000000000000000000000000000000006000526000806004600080875af190508015915050919050565b6000806000808573ffffffffffffffffffffffffffffffffffffffff1685604051602401620006d0919062001f96565b6040516020818303038152906040527f70a08231000000000000000000000000000000000000000000000000000000007bffffffffffffffffffffffffffffffffffffffffffffffffffffffff19166020820180517bffffffffffffffffffffffffffffffffffffffffffffffffffffffff83818316178352505050506040516200075c91906200202c565b6000604051808303816000865af19150503d80600081146200079b576040519150601f19603f3d011682016040523d82523d6000602084013e620007a0565b606091505b50915091508115620007f05760006020825103620007e05781806020019051810190620007ce919062002045565b905080600194509450505050620007fa565b60008094509450505050620007fa565b6000809350935050505b9250929050565b600080600080620008188662000cc960201b60201c565b91509150600080620008308762000cc960201b60201c565b915091508280156200083f5750805b156200091a5760128460ff161115620008825760128462000861919062002084565b600a6200086f919062002214565b8a6200087c919062002294565b620008ad565b83601262000891919062002084565b600a6200089f919062002214565b8a620008ac9190620022cc565b5b955060128260ff161115620008ec57601282620008cb919062002084565b600a620008d9919062002214565b89620008e6919062002294565b62000917565b816012620008fb919062002084565b600a62000909919062002214565b89620009169190620022cc565b5b94505b5050505094509492505050565b60008673ffffffffffffffffffffffffffffffffffffffff168873ffffffffffffffffffffffffffffffffffffffff1603620009665785905062000cbe565b6001856fffffffffffffffffffffffffffffffff1611156200099c5762000994858762000e4160201b60201c565b905062000cbe565b821562000b7d57600060405180606001604052806101f461ffff168152602001610bb861ffff16815260200161271061ffff16815250905060005b600381101562000b755760008673ffffffffffffffffffffffffffffffffffffffff16631698ee828b73ffffffffffffffffffffffffffffffffffffffff168d73ffffffffffffffffffffffffffffffffffffffff161062000a3a578b62000a3c565b8c5b8c73ffffffffffffffffffffffffffffffffffffffff168e73ffffffffffffffffffffffffffffffffffffffff161062000a77578d62000a79565b8c5b86866003811062000a8f5762000a8e62001c93565b5b60200201516040518463ffffffff1660e01b815260040162000ab4939291906200238d565b602060405180830381865afa15801562000ad2573d6000803e3d6000fd5b505050506040513d601f19601f8201168201806040525081019062000af8919062001cc2565b9050600073ffffffffffffffffffffffffffffffffffffffff168173ffffffffffffffffffffffffffffffffffffffff161462000b6057600062000b468c8b8d858a62000f9b60201b60201c565b90506000811462000b5e578094505050505062000cbe565b505b508062000b6d9062001d5e565b9050620009d7565b505062000cb9565b60008773ffffffffffffffffffffffffffffffffffffffff168973ffffffffffffffffffffffffffffffffffffffff1610905060008573ffffffffffffffffffffffffffffffffffffffff1663e6a439058362000bdb578a62000bdd565b8b5b8462000bea578c62000bec565b8b5b6040518363ffffffff1660e01b815260040162000c0b929190620023ca565b602060405180830381865afa15801562000c29573d6000803e3d6000fd5b505050506040513d601f19601f8201168201806040525081019062000c4f919062001cc2565b9050600073ffffffffffffffffffffffffffffffffffffffff168173ffffffffffffffffffffffffffffffffffffffff161462000cb657600062000c9d8b8a8c8589620011ad60201b60201c565b90506000811462000cb45780935050505062000cbe565b505b50505b600090505b979650505050505050565b6000806000808473ffffffffffffffffffffffffffffffffffffffff166040516024016040516020818303038152906040527f313ce567000000000000000000000000000000000000000000000000000000007bffffffffffffffffffffffffffffffffffffffffffffffffffffffff19166020820180517bffffffffffffffffffffffffffffffffffffffffffffffffffffffff838183161783525050505060405162000d7891906200202c565b6000604051808303816000865af19150503d806000811462000db7576040519150601f19603f3d011682016040523d82523d6000602084013e62000dbc565b606091505b5091509150811562000e32576000602082510362000e22578180602001905181019062000dea919062002045565b9050600081148062000dfc575060ff81115b1562000e12576000809450945050505062000e3c565b8060019450945050505062000e3c565b6000809450945050505062000e3c565b6000809350935050505b915091565b60008082148062000e6457506000836fffffffffffffffffffffffffffffffff16145b1562000e74576000905062000f95565b600060406fffffffffffffffffffffffffffffffff8416856fffffffffffffffffffffffffffffffff1602901c90506000608084901c856fffffffffffffffffffffffffffffffff1602905077ffffffffffffffffffffffffffffffffffffffffffffffff81111562000f1e576040517f08c379a000000000000000000000000000000000000000000000000000000000815260040162000f159062002458565b60405180910390fd5b604081901b9050817fffffffffffffffffffffffffffffffffffffffffffffffffffffffffffffffff0381111562000f8d576040517f08c379a000000000000000000000000000000000000000000000000000000000815260040162000f8490620024ca565b60405180910390fd5b818101925050505b92915050565b600080600062000fb1856200131a60201b60201c565b915091506000806200104484848a73ffffffffffffffffffffffffffffffffffffffff168d73ffffffffffffffffffffffffffffffffffffffff161062000ff9578a62000ffb565b8c5b8b73ffffffffffffffffffffffffffffffffffffffff168e73ffffffffffffffffffffffffffffffffffffffff161062001036578d62001038565b8b5b6200080160201b60201c565b915091508773ffffffffffffffffffffffffffffffffffffffff168a73ffffffffffffffffffffffffffffffffffffffff1610156200109a578581101562001094576000945050505050620011a4565b620010b2565b85821015620010b1576000945050505050620011a4565b5b60008873ffffffffffffffffffffffffffffffffffffffff168b73ffffffffffffffffffffffffffffffffffffffff16106200110057620010fa83836200166960201b60201c565b62001113565b6200111282846200166960201b60201c565b5b9050806000808d73ffffffffffffffffffffffffffffffffffffffff1673ffffffffffffffffffffffffffffffffffffffff16815260200190815260200160002060006101000a8154816fffffffffffffffffffffffffffffffff02191690836fffffffffffffffffffffffffffffffff1602179055506200119c818b62000e4160201b60201c565b955050505050505b95945050505050565b6000808473ffffffffffffffffffffffffffffffffffffffff168773ffffffffffffffffffffffffffffffffffffffff16109050600080620012138684620011f65788620011f8565b8a5b8562001205578b62001207565b895b6200039360201b60201c565b9150915082156200123a578481101562001234576000935050505062001311565b62001251565b8482101562001250576000935050505062001311565b5b6000620012818462001264578362001266565b825b8562001273578362001275565b845b6200166960201b60201c565b9050806000808c73ffffffffffffffffffffffffffffffffffffffff1673ffffffffffffffffffffffffffffffffffffffff16815260200190815260200160002060006101000a8154816fffffffffffffffffffffffffffffffff02191690836fffffffffffffffffffffffffffffffff1602179055506200130a818a62000e4160201b60201c565b9450505050505b95945050505050565b60008060008373ffffffffffffffffffffffffffffffffffffffff16633850c7bd6040518163ffffffff1660e01b815260040160e060405180830381865afa1580156200136b573d6000803e3d6000fd5b505050506040513d601f19601f82011682018060405250810190620013919190620025bd565b505050505050905060008473ffffffffffffffffffffffffffffffffffffffff16631a6865026040518163ffffffff1660e01b8152600401602060405180830381865afa158015620013e7573d6000803e3d6000fd5b505050506040513d601f19601f820116820180604052508101906200140d9190620026bd565b90506000816fffffffffffffffffffffffffffffffff16148062001447575060008273ffffffffffffffffffffffffffffffffffffffff16145b156200145c5760008093509350505062001664565b60008273ffffffffffffffffffffffffffffffffffffffff16780100000000000000000000000000000000000000000000000081620014a0576200149f62002265565b5b0478ffffffffffffffffffffffffffffffffffffffffffffffffff1690506000606068010000000000000000846fffffffffffffffffffffffffffffffff16168302901c905060006060846fffffffffffffffffffffffffffffffff16901c830290506000606068010000000000000000866fffffffffffffffffffffffffffffffff16168773ffffffffffffffffffffffffffffffffffffffff1602901c905060006060866fffffffffffffffffffffffffffffffff16901c8773ffffffffffffffffffffffffffffffffffffffff16029050606083901b9250606081901b90507fffffffffffffffffffffffffffffffffffffffffffffffffffffffffffffffff831115620015e8576040517f08c379a0000000000000000000000000000000000000000000000000000000008152600401620015df906200273f565b60405180910390fd5b7fffffffffffffffffffffffffffffffffffffffffffffffffffffffffffffffff8111156200164e576040517f08c379a00000000000000000000000000000000000000000000000000000000081526004016200164590620027b1565b60405180910390fd5b838301828201809950819a505050505050505050505b915091565b60008082036200167d57600090506200186c565b600077ffffffffffffffffffffffffffffffffffffffffffffffff8411620016bf5782604085901b81620016b657620016b562002265565b5b04905062001843565b600060c09050600060c086901c90506401000000008110620016e957602081901c90506020820191505b6201000081106200170257601081901c90506010820191505b61010081106200171a57600881901c90506008820191505b601081106200173157600481901c90506004820191505b600481106200174857600281901c90506002820191505b6002811062001758576001820191505b600160bf830360018703901c018260ff0387901b816200177d576200177c62002265565b5b0492506fffffffffffffffffffffffffffffffff831115620017a657600093505050506200186c565b6000608086901c8402905060006fffffffffffffffffffffffffffffffff871685029050600060c089901c9050600060408a901b905082811015620017ec576001820391505b8281039050608084901b92508281101562001808576001820391505b8281039050608084901c8214620018245762001823620027d3565b5b88818162001837576200183662002265565b5b04870196505050505050505b6fffffffffffffffffffffffffffffffff811115620018675760009150506200186c565b809150505b92915050565b6000604051905090565b600080fd5b600080fd5b600080fd5b6000601f19601f8301169050919050565b7f4e487b7100000000000000000000000000000000000000000000000000000000600052604160045260246000fd5b620018d6826200188b565b810181811067ffffffffffffffff82111715620018f857620018f76200189c565b5b80604052505050565b60006200190d62001872565b90506200191b8282620018cb565b919050565b600067ffffffffffffffff8211156200193e576200193d6200189c565b5b602082029050602081019050919050565b600080fd5b600073ffffffffffffffffffffffffffffffffffffffff82169050919050565b6000620019818262001954565b9050919050565b620019938162001974565b81146200199f57600080fd5b50565b600081519050620019b38162001988565b92915050565b6000620019d0620019ca8462001920565b62001901565b90508083825260208201905060208402830185811115620019f657620019f56200194f565b5b835b8181101562001a23578062001a0e8882620019a2565b845260208401935050602081019050620019f8565b5050509392505050565b600082601f83011262001a455762001a4462001886565b5b815162001a57848260208601620019b9565b91505092915050565b600067ffffffffffffffff82111562001a7e5762001a7d6200189c565b5b602082029050602081019050919050565b60008115159050919050565b62001aa68162001a8f565b811462001ab257600080fd5b50565b60008151905062001ac68162001a9b565b92915050565b600062001ae362001add8462001a60565b62001901565b9050808382526020820190506020840283018581111562001b095762001b086200194f565b5b835b8181101562001b36578062001b21888262001ab5565b84526020840193505060208101905062001b0b565b5050509392505050565b600082601f83011262001b585762001b5762001886565b5b815162001b6a84826020860162001acc565b91505092915050565b6000819050919050565b62001b888162001b73565b811462001b9457600080fd5b50565b60008151905062001ba88162001b7d565b92915050565b600080600080600060a0868803121562001bcd5762001bcc6200187c565b5b600086015167ffffffffffffffff81111562001bee5762001bed62001881565b5b62001bfc8882890162001a2d565b955050602086015167ffffffffffffffff81111562001c205762001c1f62001881565b5b62001c2e8882890162001a2d565b945050604086015167ffffffffffffffff81111562001c525762001c5162001881565b5b62001c608882890162001b40565b935050606062001c7388828901620019a2565b925050608062001c868882890162001b97565b9150509295509295909350565b7f4e487b7100000000000000000000000000000000000000000000000000000000600052603260045260246000fd5b60006020828403121562001cdb5762001cda6200187c565b5b600062001ceb84828501620019a2565b91505092915050565b7f4e487b7100000000000000000000000000000000000000000000000000000000600052601160045260246000fd5b600062001d308262001b73565b915062001d3d8362001b73565b925082820190508082111562001d585762001d5762001cf4565b5b92915050565b600062001d6b8262001b73565b91507fffffffffffffffffffffffffffffffffffffffffffffffffffffffffffffffff820362001da05762001d9f62001cf4565b5b600182019050919050565b600081519050919050565b600082825260208201905092915050565b6000819050602082019050919050565b62001de28162001b73565b82525050565b600062001df6838362001dd7565b60208301905092915050565b6000602082019050919050565b600062001e1c8262001dab565b62001e28818562001db6565b935062001e358362001dc7565b8060005b8381101562001e6c57815162001e50888262001de8565b975062001e5d8362001e02565b92505060018101905062001e39565b5085935050505092915050565b6000602082019050818103600083015262001e95818462001e0f565b905092915050565b60006dffffffffffffffffffffffffffff82169050919050565b62001ec28162001e9d565b811462001ece57600080fd5b50565b60008151905062001ee28162001eb7565b92915050565b600063ffffffff82169050919050565b62001f038162001ee8565b811462001f0f57600080fd5b50565b60008151905062001f238162001ef8565b92915050565b60008060006060848603121562001f455762001f446200187c565b5b600062001f558682870162001ed1565b935050602062001f688682870162001ed1565b925050604062001f7b8682870162001f12565b9150509250925092565b62001f908162001974565b82525050565b600060208201905062001fad600083018462001f85565b92915050565b600081519050919050565b600081905092915050565b60005b8381101562001fe957808201518184015260208101905062001fcc565b60008484015250505050565b6000620020028262001fb3565b6200200e818562001fbe565b93506200202081856020860162001fc9565b80840191505092915050565b60006200203a828462001ff5565b915081905092915050565b6000602082840312156200205e576200205d6200187c565b5b60006200206e8482850162001b97565b91505092915050565b600060ff82169050919050565b6000620020918262002077565b91506200209e8362002077565b9250828203905060ff811115620020ba57620020b962001cf4565b5b92915050565b60008160011c9050919050565b6000808291508390505b60018511156200211f57808604811115620020f757620020f662001cf4565b5b6001851615620021075780820291505b80810290506200211785620020c0565b9450620020d7565b94509492505050565b6000826200213a57600190506200220d565b816200214a57600090506200220d565b81600181146200216357600281146200216e57620021a4565b60019150506200220d565b60ff84111562002183576200218262001cf4565b5b8360020a9150848211156200219d576200219c62001cf4565b5b506200220d565b5060208310610133831016604e8410600b8410161715620021de5782820a905083811115620021d857620021d762001cf4565b5b6200220d565b620021ed8484846001620020cd565b9250905081840481111562002207576200220662001cf4565b5b81810290505b9392505050565b6000620022218262001b73565b91506200222e8362002077565b92506200225d7fffffffffffffffffffffffffffffffffffffffffffffffffffffffffffffffff848462002128565b905092915050565b7f4e487b7100000000000000000000000000000000000000000000000000000000600052601260045260246000fd5b6000620022a18262001b73565b9150620022ae8362001b73565b925082620022c157620022c062002265565b5b828204905092915050565b6000620022d98262001b73565b9150620022e68362001b73565b9250817fffffffffffffffffffffffffffffffffffffffffffffffffffffffffffffffff048311821515161562002322576200232162001cf4565b5b828202905092915050565b600061ffff82169050919050565b600062ffffff82169050919050565b6000819050919050565b6000620023756200236f62002369846200232d565b6200234a565b6200233b565b9050919050565b620023878162002354565b82525050565b6000606082019050620023a4600083018662001f85565b620023b3602083018562001f85565b620023c260408301846200237c565b949350505050565b6000604082019050620023e1600083018562001f85565b620023f0602083018462001f85565b9392505050565b600082825260208201905092915050565b7f6f766572666c6f772d3020696e206d756c363455000000000000000000000000600082015250565b600062002440601483620023f7565b91506200244d8262002408565b602082019050919050565b60006020820190508181036000830152620024738162002431565b9050919050565b7f6f766572666c6f772d3120696e206d756c363455000000000000000000000000600082015250565b6000620024b2601483620023f7565b9150620024bf826200247a565b602082019050919050565b60006020820190508181036000830152620024e581620024a3565b9050919050565b620024f78162001954565b81146200250357600080fd5b50565b6000815190506200251781620024ec565b92915050565b60008160020b9050919050565b62002535816200251d565b81146200254157600080fd5b50565b60008151905062002555816200252a565b92915050565b62002566816200232d565b81146200257257600080fd5b50565b60008151905062002586816200255b565b92915050565b620025978162002077565b8114620025a357600080fd5b50565b600081519050620025b7816200258c565b92915050565b600080600080600080600060e0888a031215620025df57620025de6200187c565b5b6000620025ef8a828b0162002506565b9750506020620026028a828b0162002544565b9650506040620026158a828b0162002575565b9550506060620026288a828b0162002575565b94505060806200263b8a828b0162002575565b93505060a06200264e8a828b01620025a6565b92505060c0620026618a828b0162001ab5565b91505092959891949750929550565b60006fffffffffffffffffffffffffffffffff82169050919050565b620026978162002670565b8114620026a357600080fd5b50565b600081519050620026b7816200268c565b92915050565b600060208284031215620026d657620026d56200187c565b5b6000620026e684828501620026a6565b91505092915050565b7f68695f7230000000000000000000000000000000000000000000000000000000600082015250565b600062002727600583620023f7565b91506200273482620026ef565b602082019050919050565b600060208201905081810360008301526200275a8162002718565b9050919050565b7f68695f7231000000000000000000000000000000000000000000000000000000600082015250565b600062002799600583620023f7565b9150620027a68262002761565b602082019050919050565b60006020820190508181036000830152620027cc816200278a565b9050919050565b7f4e487b7100000000000000000000000000000000000000000000000000000000600052600160045260246000fdfe",
        "linkReferences": {}
    },
    "deployedBytecode": {
        "object": "0x608060405234801561001057600080fd5b506004361061002b5760003560e01c80630ed45c8e14610030575b600080fd5b61004a600480360381019061004591906100f2565b610060565b604051610057919061014a565b60405180910390f35b60006020528060005260406000206000915054906101000a90046fffffffffffffffffffffffffffffffff1681565b600080fd5b600073ffffffffffffffffffffffffffffffffffffffff82169050919050565b60006100bf82610094565b9050919050565b6100cf816100b4565b81146100da57600080fd5b50565b6000813590506100ec816100c6565b92915050565b6000602082840312156101085761010761008f565b5b6000610116848285016100dd565b91505092915050565b60006fffffffffffffffffffffffffffffffff82169050919050565b6101448161011f565b82525050565b600060208201905061015f600083018461013b565b9291505056fea26469706673582212208881967e16a19cf91f230b12a643f94ea486c88a31748c4cbef22f205f1709a664736f6c63430008100033",
        "linkReferences": {}
    },
    "methodIdentifiers": {
        "tokenToWethPrices(address)": "0ed45c8e"
    },
    "id": 0
}