{
    "abi": [
        {
            "inputs": [
                {
                    "internalType": "address[]",
                    "name": "pools",
                    "type": "address[]"
                },
                {
                    "internalType": "address[]",
                    "name": "dexes",
                    "type": "address[]"
                },
                {
                    "internalType": "bool[]",
                    "name": "dexIsUniV3",
                    "type": "bool[]"
                },
                {
                    "internalType": "address",
                    "name": "weth",
                    "type": "address"
                },
                {
                    "internalType": "uint256",
                    "name": "wethInPoolThreshold",
                    "type": "uint256"
                }
            ],
            "stateMutability": "nonpayable",
            "type": "constructor"
        },
        {
            "inputs": [
                {
                    "internalType": "address",
                    "name": "",
                    "type": "address"
                }
            ],
            "name": "tokenToWethPrices",
            "outputs": [
                {
                    "internalType": "uint128",
                    "name": "",
                    "type": "uint128"
                }
            ],
            "stateMutability": "view",
            "type": "function"
        }
    ],
    "bytecode": {
        "object": "0x60806040523480156200001157600080fd5b50604051620021783803806200217883398181016040528101906200003791906200180a565b6000855167ffffffffffffffff811115620000575762000056620014f8565b5b604051908082528060200260200182016040528015620000865781602001602082028036833780820191505090505b50905060005b86518110156200032d57620000c4878281518110620000b057620000af620018ef565b5b60200260200101516200035e60201b60201c565b620002f4576000878281518110620000e157620000e0620018ef565b5b602002602001015173ffffffffffffffffffffffffffffffffffffffff16630dfe16816040518163ffffffff1660e01b8152600401602060405180830381865afa15801562000134573d6000803e3d6000fd5b505050506040513d601f19601f820116820180604052508101906200015a91906200191e565b90506000888381518110620001745762000173620018ef565b5b602002602001015173ffffffffffffffffffffffffffffffffffffffff1663d21220a76040518163ffffffff1660e01b8152600401602060405180830381865afa158015620001c7573d6000803e3d6000fd5b505050506040513d601f19601f82011682018060405250810190620001ed91906200191e565b905062000200826200035e60201b60201c565b1580156200021c57506200021a816200035e60201b60201c565b155b15620002c757600080620002558b86815181106200023f576200023e620018ef565b5b602002602001015185856200039360201b60201c565b91509150600062000271858a858e8e8d6200050b60201b60201c565b905060006200028b858b858f8f8e6200050b60201b60201c565b905080826200029b91906200197f565b888881518110620002b157620002b0620018ef565b5b60200260200101818152505050505050620002ec565b6000848481518110620002df57620002de620018ef565b5b6020026020010181815250505b505062000319565b60008282815181106200030c576200030b620018ef565b5b6020026020010181815250505b806200032590620019ba565b90506200008c565b5060008160405160200162000343919062001ad5565b60405160208183030381529060405290506020810180590381f35b6000808273ffffffffffffffffffffffffffffffffffffffff163b036200038957600190506200038e565b600090505b919050565b600080600080620003aa87620006a460201b60201c565b1562000458576000808873ffffffffffffffffffffffffffffffffffffffff16630902f1ac6040518163ffffffff1660e01b8152600401606060405180830381865afa158015620003ff573d6000803e3d6000fd5b505050506040513d601f19601f8201168201806040525081019062000425919062001b85565b5091509150816dffffffffffffffffffffffffffff169350806dffffffffffffffffffffffffffff1692505050620004e9565b6000806200046d888a620006e260201b60201c565b9150915060008062000486898c620006e260201b60201c565b91509150828015620004955750805b15620004e4578873ffffffffffffffffffffffffffffffffffffffff168a73ffffffffffffffffffffffffffffffffffffffff161015620004dc57839550819450620004e3565b8394508195505b5b505050505b620004fd828288886200084360201b60201c565b935093505050935093915050565b6000806000808973ffffffffffffffffffffffffffffffffffffffff1673ffffffffffffffffffffffffffffffffffffffff16815260200190815260200160002060009054906101000a90046fffffffffffffffffffffffffffffffff1690506001816fffffffffffffffffffffffffffffffff1614620006945760005b855181101562000612576000620005e68a8a8a868b8781518110620005b357620005b2620018ef565b5b60200260200101518b8881518110620005d157620005d0620018ef565b5b60200260200101518b6200096960201b60201c565b905060008114620005fd578093505050506200069a565b50806200060a90620019ba565b905062000589565b5060016000808a73ffffffffffffffffffffffffffffffffffffffff1673ffffffffffffffffffffffffffffffffffffffff16815260200190815260200160002060006101000a8154816fffffffffffffffffffffffffffffffff02191690836fffffffffffffffffffffffffffffffff16021790555060009150506200069a565b60009150505b9695505050505050565b6000807fddca3f43000000000000000000000000000000000000000000000000000000006000526000806004600080875af190508015915050919050565b6000806000808573ffffffffffffffffffffffffffffffffffffffff168560405160240162000712919062001bf2565b6040516020818303038152906040527f70a08231000000000000000000000000000000000000000000000000000000007bffffffffffffffffffffffffffffffffffffffffffffffffffffffff19166020820180517bffffffffffffffffffffffffffffffffffffffffffffffffffffffff83818316178352505050506040516200079e919062001c88565b6000604051808303816000865af19150503d8060008114620007dd576040519150601f19603f3d011682016040523d82523d6000602084013e620007e2565b606091505b5091509150811562000832576000602082510362000822578180602001905181019062000810919062001ca1565b9050806001945094505050506200083c565b600080945094505050506200083c565b6000809350935050505b9250929050565b6000806000806200085a8662000d0b60201b60201c565b91509150600080620008728762000d0b60201b60201c565b91509150828015620008815750805b156200095c5760128460ff161115620008c457601284620008a3919062001ce0565b600a620008b1919062001e70565b8a620008be919062001ef0565b620008ef565b836012620008d3919062001ce0565b600a620008e1919062001e70565b8a620008ee919062001f28565b5b955060128260ff1611156200092e576012826200090d919062001ce0565b600a6200091b919062001e70565b8962000928919062001ef0565b62000959565b8160126200093d919062001ce0565b600a6200094b919062001e70565b8962000958919062001f28565b5b94505b5050505094509492505050565b60008673ffffffffffffffffffffffffffffffffffffffff168873ffffffffffffffffffffffffffffffffffffffff1603620009a85785905062000d00565b6001856fffffffffffffffffffffffffffffffff161115620009de57620009d6858762000e8360201b60201c565b905062000d00565b821562000bbf57600060405180606001604052806101f461ffff168152602001610bb861ffff16815260200161271061ffff16815250905060005b600381101562000bb75760008673ffffffffffffffffffffffffffffffffffffffff16631698ee828b73ffffffffffffffffffffffffffffffffffffffff168d73ffffffffffffffffffffffffffffffffffffffff161062000a7c578b62000a7e565b8c5b8c73ffffffffffffffffffffffffffffffffffffffff168e73ffffffffffffffffffffffffffffffffffffffff161062000ab9578d62000abb565b8c5b86866003811062000ad15762000ad0620018ef565b5b60200201516040518463ffffffff1660e01b815260040162000af69392919062001fe9565b602060405180830381865afa15801562000b14573d6000803e3d6000fd5b505050506040513d601f19601f8201168201806040525081019062000b3a91906200191e565b9050600073ffffffffffffffffffffffffffffffffffffffff168173ffffffffffffffffffffffffffffffffffffffff161462000ba257600062000b888c8b8d858a62000fdd60201b60201c565b90506000811462000ba0578094505050505062000d00565b505b508062000baf90620019ba565b905062000a19565b505062000cfb565b60008773ffffffffffffffffffffffffffffffffffffffff168973ffffffffffffffffffffffffffffffffffffffff1610905060008573ffffffffffffffffffffffffffffffffffffffff1663e6a439058362000c1d578a62000c1f565b8b5b8462000c2c578c62000c2e565b8b5b6040518363ffffffff1660e01b815260040162000c4d92919062002026565b602060405180830381865afa15801562000c6b573d6000803e3d6000fd5b505050506040513d601f19601f8201168201806040525081019062000c9191906200191e565b9050600073ffffffffffffffffffffffffffffffffffffffff168173ffffffffffffffffffffffffffffffffffffffff161462000cf857600062000cdf8b8a8c85896200115860201b60201c565b90506000811462000cf65780935050505062000d00565b505b50505b600090505b979650505050505050565b6000806000808473ffffffffffffffffffffffffffffffffffffffff166040516024016040516020818303038152906040527f313ce567000000000000000000000000000000000000000000000000000000007bffffffffffffffffffffffffffffffffffffffffffffffffffffffff19166020820180517bffffffffffffffffffffffffffffffffffffffffffffffffffffffff838183161783525050505060405162000dba919062001c88565b6000604051808303816000865af19150503d806000811462000df9576040519150601f19603f3d011682016040523d82523d6000602084013e62000dfe565b606091505b5091509150811562000e74576000602082510362000e64578180602001905181019062000e2c919062001ca1565b9050600081148062000e3e575060ff81115b1562000e54576000809450945050505062000e7e565b8060019450945050505062000e7e565b6000809450945050505062000e7e565b6000809350935050505b915091565b60008082148062000ea657506000836fffffffffffffffffffffffffffffffff16145b1562000eb6576000905062000fd7565b600060406fffffffffffffffffffffffffffffffff8416856fffffffffffffffffffffffffffffffff1602901c90506000608084901c856fffffffffffffffffffffffffffffffff1602905077ffffffffffffffffffffffffffffffffffffffffffffffff81111562000f60576040517f08c379a000000000000000000000000000000000000000000000000000000000815260040162000f5790620020b4565b60405180910390fd5b604081901b9050817fffffffffffffffffffffffffffffffffffffffffffffffffffffffffffffffff0381111562000fcf576040517f08c379a000000000000000000000000000000000000000000000000000000000815260040162000fc69062002126565b60405180910390fd5b818101925050505b92915050565b600080600062000ff58589886200039360201b60201c565b915091508573ffffffffffffffffffffffffffffffffffffffff168873ffffffffffffffffffffffffffffffffffffffff16101562001049578381101562001043576000925050506200114f565b6200105f565b838210156200105e576000925050506200114f565b5b60008673ffffffffffffffffffffffffffffffffffffffff168973ffffffffffffffffffffffffffffffffffffffff1610620010ad57620010a78383620012c560201b60201c565b620010c0565b620010bf8284620012c560201b60201c565b5b9050806000808b73ffffffffffffffffffffffffffffffffffffffff1673ffffffffffffffffffffffffffffffffffffffff16815260200190815260200160002060006101000a8154816fffffffffffffffffffffffffffffffff02191690836fffffffffffffffffffffffffffffffff16021790555062001149818962000e8360201b60201c565b93505050505b95945050505050565b6000808473ffffffffffffffffffffffffffffffffffffffff168773ffffffffffffffffffffffffffffffffffffffff16109050600080620011be8684620011a15788620011a3565b8a5b85620011b0578b620011b2565b895b6200039360201b60201c565b915091508215620011e55784811015620011df5760009350505050620012bc565b620011fc565b84821015620011fb5760009350505050620012bc565b5b60006200122c846200120f578362001211565b825b856200121e578362001220565b845b620012c560201b60201c565b9050806000808c73ffffffffffffffffffffffffffffffffffffffff1673ffffffffffffffffffffffffffffffffffffffff16815260200190815260200160002060006101000a8154816fffffffffffffffffffffffffffffffff02191690836fffffffffffffffffffffffffffffffff160217905550620012b5818a62000e8360201b60201c565b9450505050505b95945050505050565b6000808203620012d95760009050620014c8565b600077ffffffffffffffffffffffffffffffffffffffffffffffff84116200131b5782604085901b8162001312576200131162001ec1565b5b0490506200149f565b600060c09050600060c086901c905064010000000081106200134557602081901c90506020820191505b6201000081106200135e57601081901c90506010820191505b61010081106200137657600881901c90506008820191505b601081106200138d57600481901c90506004820191505b60048110620013a457600281901c90506002820191505b60028110620013b4576001820191505b600160bf830360018703901c018260ff0387901b81620013d957620013d862001ec1565b5b0492506fffffffffffffffffffffffffffffffff831115620014025760009350505050620014c8565b6000608086901c8402905060006fffffffffffffffffffffffffffffffff871685029050600060c089901c9050600060408a901b90508281101562001448576001820391505b8281039050608084901b92508281101562001464576001820391505b8281039050608084901c821462001480576200147f62002148565b5b88818162001493576200149262001ec1565b5b04870196505050505050505b6fffffffffffffffffffffffffffffffff811115620014c3576000915050620014c8565b809150505b92915050565b6000604051905090565b600080fd5b600080fd5b600080fd5b6000601f19601f8301169050919050565b7f4e487b7100000000000000000000000000000000000000000000000000000000600052604160045260246000fd5b6200153282620014e7565b810181811067ffffffffffffffff82111715620015545762001553620014f8565b5b80604052505050565b600062001569620014ce565b905062001577828262001527565b919050565b600067ffffffffffffffff8211156200159a5762001599620014f8565b5b602082029050602081019050919050565b600080fd5b600073ffffffffffffffffffffffffffffffffffffffff82169050919050565b6000620015dd82620015b0565b9050919050565b620015ef81620015d0565b8114620015fb57600080fd5b50565b6000815190506200160f81620015e4565b92915050565b60006200162c62001626846200157c565b6200155d565b90508083825260208201905060208402830185811115620016525762001651620015ab565b5b835b818110156200167f57806200166a8882620015fe565b84526020840193505060208101905062001654565b5050509392505050565b600082601f830112620016a157620016a0620014e2565b5b8151620016b384826020860162001615565b91505092915050565b600067ffffffffffffffff821115620016da57620016d9620014f8565b5b602082029050602081019050919050565b60008115159050919050565b6200170281620016eb565b81146200170e57600080fd5b50565b6000815190506200172281620016f7565b92915050565b60006200173f6200173984620016bc565b6200155d565b90508083825260208201905060208402830185811115620017655762001764620015ab565b5b835b818110156200179257806200177d888262001711565b84526020840193505060208101905062001767565b5050509392505050565b600082601f830112620017b457620017b3620014e2565b5b8151620017c684826020860162001728565b91505092915050565b6000819050919050565b620017e481620017cf565b8114620017f057600080fd5b50565b6000815190506200180481620017d9565b92915050565b600080600080600060a08688031215620018295762001828620014d8565b5b600086015167ffffffffffffffff8111156200184a5762001849620014dd565b5b620018588882890162001689565b955050602086015167ffffffffffffffff8111156200187c576200187b620014dd565b5b6200188a8882890162001689565b945050604086015167ffffffffffffffff811115620018ae57620018ad620014dd565b5b620018bc888289016200179c565b9350506060620018cf88828901620015fe565b9250506080620018e288828901620017f3565b9150509295509295909350565b7f4e487b7100000000000000000000000000000000000000000000000000000000600052603260045260246000fd5b600060208284031215620019375762001936620014d8565b5b60006200194784828501620015fe565b91505092915050565b7f4e487b7100000000000000000000000000000000000000000000000000000000600052601160045260246000fd5b60006200198c82620017cf565b91506200199983620017cf565b9250828201905080821115620019b457620019b362001950565b5b92915050565b6000620019c782620017cf565b91507fffffffffffffffffffffffffffffffffffffffffffffffffffffffffffffffff8203620019fc57620019fb62001950565b5b600182019050919050565b600081519050919050565b600082825260208201905092915050565b6000819050602082019050919050565b62001a3e81620017cf565b82525050565b600062001a52838362001a33565b60208301905092915050565b6000602082019050919050565b600062001a788262001a07565b62001a84818562001a12565b935062001a918362001a23565b8060005b8381101562001ac857815162001aac888262001a44565b975062001ab98362001a5e565b92505060018101905062001a95565b5085935050505092915050565b6000602082019050818103600083015262001af1818462001a6b565b905092915050565b60006dffffffffffffffffffffffffffff82169050919050565b62001b1e8162001af9565b811462001b2a57600080fd5b50565b60008151905062001b3e8162001b13565b92915050565b600063ffffffff82169050919050565b62001b5f8162001b44565b811462001b6b57600080fd5b50565b60008151905062001b7f8162001b54565b92915050565b60008060006060848603121562001ba15762001ba0620014d8565b5b600062001bb18682870162001b2d565b935050602062001bc48682870162001b2d565b925050604062001bd78682870162001b6e565b9150509250925092565b62001bec81620015d0565b82525050565b600060208201905062001c09600083018462001be1565b92915050565b600081519050919050565b600081905092915050565b60005b8381101562001c4557808201518184015260208101905062001c28565b60008484015250505050565b600062001c5e8262001c0f565b62001c6a818562001c1a565b935062001c7c81856020860162001c25565b80840191505092915050565b600062001c96828462001c51565b915081905092915050565b60006020828403121562001cba5762001cb9620014d8565b5b600062001cca84828501620017f3565b91505092915050565b600060ff82169050919050565b600062001ced8262001cd3565b915062001cfa8362001cd3565b9250828203905060ff81111562001d165762001d1562001950565b5b92915050565b60008160011c9050919050565b6000808291508390505b600185111562001d7b5780860481111562001d535762001d5262001950565b5b600185161562001d635780820291505b808102905062001d738562001d1c565b945062001d33565b94509492505050565b60008262001d96576001905062001e69565b8162001da6576000905062001e69565b816001811462001dbf576002811462001dca5762001e00565b600191505062001e69565b60ff84111562001ddf5762001dde62001950565b5b8360020a91508482111562001df95762001df862001950565b5b5062001e69565b5060208310610133831016604e8410600b841016171562001e3a5782820a90508381111562001e345762001e3362001950565b5b62001e69565b62001e49848484600162001d29565b9250905081840481111562001e635762001e6262001950565b5b81810290505b9392505050565b600062001e7d82620017cf565b915062001e8a8362001cd3565b925062001eb97fffffffffffffffffffffffffffffffffffffffffffffffffffffffffffffffff848462001d84565b905092915050565b7f4e487b7100000000000000000000000000000000000000000000000000000000600052601260045260246000fd5b600062001efd82620017cf565b915062001f0a83620017cf565b92508262001f1d5762001f1c62001ec1565b5b828204905092915050565b600062001f3582620017cf565b915062001f4283620017cf565b9250817fffffffffffffffffffffffffffffffffffffffffffffffffffffffffffffffff048311821515161562001f7e5762001f7d62001950565b5b828202905092915050565b600061ffff82169050919050565b600062ffffff82169050919050565b6000819050919050565b600062001fd162001fcb62001fc58462001f89565b62001fa6565b62001f97565b9050919050565b62001fe38162001fb0565b82525050565b600060608201905062002000600083018662001be1565b6200200f602083018562001be1565b6200201e604083018462001fd8565b949350505050565b60006040820190506200203d600083018562001be1565b6200204c602083018462001be1565b9392505050565b600082825260208201905092915050565b7f6f766572666c6f772d3020696e206d756c363475000000000000000000000000600082015250565b60006200209c60148362002053565b9150620020a98262002064565b602082019050919050565b60006020820190508181036000830152620020cf816200208d565b9050919050565b7f6f766572666c6f772d3120696e206d756c363475000000000000000000000000600082015250565b60006200210e60148362002053565b91506200211b82620020d6565b602082019050919050565b600060208201905081810360008301526200214181620020ff565b9050919050565b7f4e487b7100000000000000000000000000000000000000000000000000000000600052600160045260246000fdfe",
        "linkReferences": {}
    },
    "deployedBytecode": {
        "object": "0x608060405234801561001057600080fd5b506004361061002b5760003560e01c80630ed45c8e14610030575b600080fd5b61004a600480360381019061004591906100f2565b610060565b604051610057919061014a565b60405180910390f35b60006020528060005260406000206000915054906101000a90046fffffffffffffffffffffffffffffffff1681565b600080fd5b600073ffffffffffffffffffffffffffffffffffffffff82169050919050565b60006100bf82610094565b9050919050565b6100cf816100b4565b81146100da57600080fd5b50565b6000813590506100ec816100c6565b92915050565b6000602082840312156101085761010761008f565b5b6000610116848285016100dd565b91505092915050565b60006fffffffffffffffffffffffffffffffff82169050919050565b6101448161011f565b82525050565b600060208201905061015f600083018461013b565b9291505056fea2646970667358221220692791624b365ca58622b202efc2d121588af4035ea1643f250d95fbddd3e05064736f6c63430008100033",
        "linkReferences": {}
    },
    "methodIdentifiers": {
        "tokenToWethPrices(address)": "0ed45c8e"
    },
    "id": 0
}