{
    "abi": [
        {
            "inputs": [
                {
                    "internalType": "address[]",
                    "name": "pools",
                    "type": "address[]"
                },
                {
                    "internalType": "address[]",
                    "name": "dexes",
                    "type": "address[]"
                },
                {
                    "internalType": "bool[]",
                    "name": "dexIsUniV3",
                    "type": "bool[]"
                },
                {
                    "internalType": "address",
                    "name": "weth",
                    "type": "address"
                },
                {
                    "internalType": "uint256",
                    "name": "wethInPoolThreshold",
                    "type": "uint256"
                }
            ],
            "stateMutability": "nonpayable",
            "type": "constructor"
        },
        {
            "inputs": [
                {
                    "internalType": "address",
                    "name": "",
                    "type": "address"
                }
            ],
            "name": "tokenToWethPrices",
            "outputs": [
                {
                    "internalType": "uint128",
                    "name": "",
                    "type": "uint128"
                }
            ],
            "stateMutability": "view",
            "type": "function"
        }
    ],
    "bytecode": {
        "object": "0x60806040523480156200001157600080fd5b506040516200237d3803806200237d833981810160405281019062000037919062001a0f565b6000855167ffffffffffffffff811115620000575762000056620016fd565b5b604051908082528060200260200182016040528015620000865781602001602082028036833780820191505090505b50905060005b86518110156200032d57620000c4878281518110620000b057620000af62001af4565b5b60200260200101516200035e60201b60201c565b620002f4576000878281518110620000e157620000e062001af4565b5b602002602001015173ffffffffffffffffffffffffffffffffffffffff16630dfe16816040518163ffffffff1660e01b8152600401602060405180830381865afa15801562000134573d6000803e3d6000fd5b505050506040513d601f19601f820116820180604052508101906200015a919062001b23565b9050600088838151811062000174576200017362001af4565b5b602002602001015173ffffffffffffffffffffffffffffffffffffffff1663d21220a76040518163ffffffff1660e01b8152600401602060405180830381865afa158015620001c7573d6000803e3d6000fd5b505050506040513d601f19601f82011682018060405250810190620001ed919062001b23565b905062000200826200035e60201b60201c565b1580156200021c57506200021a816200035e60201b60201c565b155b15620002c757600080620002558b86815181106200023f576200023e62001af4565b5b602002602001015185856200039360201b60201c565b91509150600062000271858a858e8e8d620004f960201b60201c565b905060006200028b858b858f8f8e620004f960201b60201c565b905080826200029b919062001b84565b888881518110620002b157620002b062001af4565b5b60200260200101818152505050505050620002ec565b6000848481518110620002df57620002de62001af4565b5b6020026020010181815250505b505062000319565b60008282815181106200030c576200030b62001af4565b5b6020026020010181815250505b80620003259062001bbf565b90506200008c565b5060008160405160200162000343919062001cda565b60405160208183030381529060405290506020810180590381f35b6000808273ffffffffffffffffffffffffffffffffffffffff163b036200038957600190506200038e565b600090505b919050565b600080600080620003aa876200061c60201b60201c565b1562000458576000808873ffffffffffffffffffffffffffffffffffffffff16630902f1ac6040518163ffffffff1660e01b8152600401606060405180830381865afa158015620003ff573d6000803e3d6000fd5b505050506040513d601f19601f8201168201806040525081019062000425919062001d8a565b5091509150816dffffffffffffffffffffffffffff169350806dffffffffffffffffffffffffffff1692505050620004e9565b6000806200046d888a6200065a60201b60201c565b9150915060008062000486898c6200065a60201b60201c565b91509150828015620004955750805b15620004e4578873ffffffffffffffffffffffffffffffffffffffff168a73ffffffffffffffffffffffffffffffffffffffff161015620004dc57839550819450620004e3565b8394508195505b5b505050505b8181935093505050935093915050565b6000806000808973ffffffffffffffffffffffffffffffffffffffff1673ffffffffffffffffffffffffffffffffffffffff16815260200190815260200160002060009054906101000a90046fffffffffffffffffffffffffffffffff1690506001816fffffffffffffffffffffffffffffffff16146200060c5760005b855181101562000600576000620005d48a8a8a868b8781518110620005a157620005a062001af4565b5b60200260200101518b8881518110620005bf57620005be62001af4565b5b60200260200101518b620007bb60201b60201c565b905060008114620005eb5780935050505062000612565b5080620005f89062001bbf565b905062000577565b50600091505062000612565b60009150505b9695505050505050565b6000807fddca3f43000000000000000000000000000000000000000000000000000000006000526000806004600080875af190508015915050919050565b6000806000808573ffffffffffffffffffffffffffffffffffffffff16856040516024016200068a919062001df7565b6040516020818303038152906040527f70a08231000000000000000000000000000000000000000000000000000000007bffffffffffffffffffffffffffffffffffffffffffffffffffffffff19166020820180517bffffffffffffffffffffffffffffffffffffffffffffffffffffffff838183161783525050505060405162000716919062001e8d565b6000604051808303816000865af19150503d806000811462000755576040519150601f19603f3d011682016040523d82523d6000602084013e6200075a565b606091505b50915091508115620007aa57600060208251036200079a578180602001905181019062000788919062001ea6565b905080600194509450505050620007b4565b60008094509450505050620007b4565b6000809350935050505b9250929050565b60008673ffffffffffffffffffffffffffffffffffffffff168873ffffffffffffffffffffffffffffffffffffffff1603620007fa5785905062000b52565b6001856fffffffffffffffffffffffffffffffff161115620008305762000828858762000b5d60201b60201c565b905062000b52565b821562000a1157600060405180606001604052806101f461ffff168152602001610bb861ffff16815260200161271061ffff16815250905060005b600381101562000a095760008673ffffffffffffffffffffffffffffffffffffffff16631698ee828b73ffffffffffffffffffffffffffffffffffffffff168d73ffffffffffffffffffffffffffffffffffffffff1610620008ce578b620008d0565b8c5b8c73ffffffffffffffffffffffffffffffffffffffff168e73ffffffffffffffffffffffffffffffffffffffff16106200090b578d6200090d565b8c5b86866003811062000923576200092262001af4565b5b60200201516040518463ffffffff1660e01b8152600401620009489392919062001f38565b602060405180830381865afa15801562000966573d6000803e3d6000fd5b505050506040513d601f19601f820116820180604052508101906200098c919062001b23565b9050600073ffffffffffffffffffffffffffffffffffffffff168173ffffffffffffffffffffffffffffffffffffffff1614620009f4576000620009da8c8b8d858a62000cb760201b60201c565b905060008114620009f2578094505050505062000b52565b505b508062000a019062001bbf565b90506200086b565b505062000b4d565b60008773ffffffffffffffffffffffffffffffffffffffff168973ffffffffffffffffffffffffffffffffffffffff1610905060008573ffffffffffffffffffffffffffffffffffffffff1663e6a439058362000a6f578a62000a71565b8b5b8462000a7e578c62000a80565b8b5b6040518363ffffffff1660e01b815260040162000a9f92919062001f75565b602060405180830381865afa15801562000abd573d6000803e3d6000fd5b505050506040513d601f19601f8201168201806040525081019062000ae3919062001b23565b9050600073ffffffffffffffffffffffffffffffffffffffff168173ffffffffffffffffffffffffffffffffffffffff161462000b4a57600062000b318b8a8c858962000fb760201b60201c565b90506000811462000b485780935050505062000b52565b505b50505b600090505b979650505050505050565b60008082148062000b8057506000836fffffffffffffffffffffffffffffffff16145b1562000b90576000905062000cb1565b600060406fffffffffffffffffffffffffffffffff8416856fffffffffffffffffffffffffffffffff1602901c90506000608084901c856fffffffffffffffffffffffffffffffff1602905077ffffffffffffffffffffffffffffffffffffffffffffffff81111562000c3a576040517f08c379a000000000000000000000000000000000000000000000000000000000815260040162000c319062002003565b60405180910390fd5b604081901b9050817fffffffffffffffffffffffffffffffffffffffffffffffffffffffffffffffff0381111562000ca9576040517f08c379a000000000000000000000000000000000000000000000000000000000815260040162000ca09062002075565b60405180910390fd5b818101925050505b92915050565b600080600062000ccf8589886200039360201b60201c565b9150915060008062000d6284848a73ffffffffffffffffffffffffffffffffffffffff168d73ffffffffffffffffffffffffffffffffffffffff161062000d17578a62000d19565b8c5b8b73ffffffffffffffffffffffffffffffffffffffff168e73ffffffffffffffffffffffffffffffffffffffff161062000d54578d62000d56565b8b5b6200122c60201b60201c565b915091508773ffffffffffffffffffffffffffffffffffffffff168a73ffffffffffffffffffffffffffffffffffffffff16101562000e2e578581101562000e285760016000808c73ffffffffffffffffffffffffffffffffffffffff1673ffffffffffffffffffffffffffffffffffffffff16815260200190815260200160002060006101000a8154816fffffffffffffffffffffffffffffffff02191690836fffffffffffffffffffffffffffffffff160217905550600094505050505062000fae565b62000ebc565b8582101562000ebb5760016000808c73ffffffffffffffffffffffffffffffffffffffff1673ffffffffffffffffffffffffffffffffffffffff16815260200190815260200160002060006101000a8154816fffffffffffffffffffffffffffffffff02191690836fffffffffffffffffffffffffffffffff160217905550600094505050505062000fae565b5b60008873ffffffffffffffffffffffffffffffffffffffff168b73ffffffffffffffffffffffffffffffffffffffff161062000f0a5762000f0483836200135260201b60201c565b62000f1d565b62000f1c82846200135260201b60201c565b5b9050806000808d73ffffffffffffffffffffffffffffffffffffffff1673ffffffffffffffffffffffffffffffffffffffff16815260200190815260200160002060006101000a8154816fffffffffffffffffffffffffffffffff02191690836fffffffffffffffffffffffffffffffff16021790555062000fa6818b62000b5d60201b60201c565b955050505050505b95945050505050565b6000808473ffffffffffffffffffffffffffffffffffffffff168773ffffffffffffffffffffffffffffffffffffffff161090506000806200101d868462001000578862001002565b8a5b856200100f578b62001011565b895b6200039360201b60201c565b915091508215620010ba5784811015620010b45760016000808b73ffffffffffffffffffffffffffffffffffffffff1673ffffffffffffffffffffffffffffffffffffffff16815260200190815260200160002060006101000a8154816fffffffffffffffffffffffffffffffff02191690836fffffffffffffffffffffffffffffffff1602179055506000935050505062001223565b62001147565b84821015620011465760016000808b73ffffffffffffffffffffffffffffffffffffffff1673ffffffffffffffffffffffffffffffffffffffff16815260200190815260200160002060006101000a8154816fffffffffffffffffffffffffffffffff02191690836fffffffffffffffffffffffffffffffff1602179055506000935050505062001223565b5b6200115b82828b8a6200122c60201b60201c565b80925081935050506000620011938462001176578362001178565b825b8562001185578362001187565b845b6200135260201b60201c565b9050806000808c73ffffffffffffffffffffffffffffffffffffffff1673ffffffffffffffffffffffffffffffffffffffff16815260200190815260200160002060006101000a8154816fffffffffffffffffffffffffffffffff02191690836fffffffffffffffffffffffffffffffff1602179055506200121c818a62000b5d60201b60201c565b9450505050505b95945050505050565b60008060008062001243866200155b60201b60201c565b915091506000806200125b876200155b60201b60201c565b915091508280156200126a5750805b15620013455760128460ff161115620012ad576012846200128c9190620020a4565b600a6200129a919062002234565b8a620012a79190620022b4565b620012d8565b836012620012bc9190620020a4565b600a620012ca919062002234565b8a620012d79190620022ec565b5b955060128260ff1611156200131757601282620012f69190620020a4565b600a62001304919062002234565b89620013119190620022b4565b62001342565b816012620013269190620020a4565b600a62001334919062002234565b89620013419190620022ec565b5b94505b5050505094509492505050565b600080820362001366576000905062001555565b600077ffffffffffffffffffffffffffffffffffffffffffffffff8411620013a85782604085901b816200139f576200139e62002285565b5b0490506200152c565b600060c09050600060c086901c90506401000000008110620013d257602081901c90506020820191505b620100008110620013eb57601081901c90506010820191505b61010081106200140357600881901c90506008820191505b601081106200141a57600481901c90506004820191505b600481106200143157600281901c90506002820191505b6002811062001441576001820191505b600160bf830360018703901c018260ff0387901b8162001466576200146562002285565b5b0492506fffffffffffffffffffffffffffffffff8311156200148f576000935050505062001555565b6000608086901c8402905060006fffffffffffffffffffffffffffffffff871685029050600060c089901c9050600060408a901b905082811015620014d5576001820391505b8281039050608084901b925082811015620014f1576001820391505b8281039050608084901c82146200150d576200150c6200234d565b5b88818162001520576200151f62002285565b5b04870196505050505050505b6fffffffffffffffffffffffffffffffff8111156200155057600091505062001555565b809150505b92915050565b6000806000808473ffffffffffffffffffffffffffffffffffffffff166040516024016040516020818303038152906040527f313ce567000000000000000000000000000000000000000000000000000000007bffffffffffffffffffffffffffffffffffffffffffffffffffffffff19166020820180517bffffffffffffffffffffffffffffffffffffffffffffffffffffffff83818316178352505050506040516200160a919062001e8d565b6000604051808303816000865af19150503d806000811462001649576040519150601f19603f3d011682016040523d82523d6000602084013e6200164e565b606091505b50915091508115620016c45760006020825103620016b457818060200190518101906200167c919062001ea6565b905060008114806200168e575060ff81115b15620016a45760008094509450505050620016ce565b80600194509450505050620016ce565b60008094509450505050620016ce565b6000809350935050505b915091565b6000604051905090565b600080fd5b600080fd5b600080fd5b6000601f19601f8301169050919050565b7f4e487b7100000000000000000000000000000000000000000000000000000000600052604160045260246000fd5b6200173782620016ec565b810181811067ffffffffffffffff82111715620017595762001758620016fd565b5b80604052505050565b60006200176e620016d3565b90506200177c82826200172c565b919050565b600067ffffffffffffffff8211156200179f576200179e620016fd565b5b602082029050602081019050919050565b600080fd5b600073ffffffffffffffffffffffffffffffffffffffff82169050919050565b6000620017e282620017b5565b9050919050565b620017f481620017d5565b81146200180057600080fd5b50565b6000815190506200181481620017e9565b92915050565b6000620018316200182b8462001781565b62001762565b90508083825260208201905060208402830185811115620018575762001856620017b0565b5b835b818110156200188457806200186f888262001803565b84526020840193505060208101905062001859565b5050509392505050565b600082601f830112620018a657620018a5620016e7565b5b8151620018b88482602086016200181a565b91505092915050565b600067ffffffffffffffff821115620018df57620018de620016fd565b5b602082029050602081019050919050565b60008115159050919050565b6200190781620018f0565b81146200191357600080fd5b50565b6000815190506200192781620018fc565b92915050565b6000620019446200193e84620018c1565b62001762565b905080838252602082019050602084028301858111156200196a5762001969620017b0565b5b835b8181101562001997578062001982888262001916565b8452602084019350506020810190506200196c565b5050509392505050565b600082601f830112620019b957620019b8620016e7565b5b8151620019cb8482602086016200192d565b91505092915050565b6000819050919050565b620019e981620019d4565b8114620019f557600080fd5b50565b60008151905062001a0981620019de565b92915050565b600080600080600060a0868803121562001a2e5762001a2d620016dd565b5b600086015167ffffffffffffffff81111562001a4f5762001a4e620016e2565b5b62001a5d888289016200188e565b955050602086015167ffffffffffffffff81111562001a815762001a80620016e2565b5b62001a8f888289016200188e565b945050604086015167ffffffffffffffff81111562001ab35762001ab2620016e2565b5b62001ac188828901620019a1565b935050606062001ad48882890162001803565b925050608062001ae788828901620019f8565b9150509295509295909350565b7f4e487b7100000000000000000000000000000000000000000000000000000000600052603260045260246000fd5b60006020828403121562001b3c5762001b3b620016dd565b5b600062001b4c8482850162001803565b91505092915050565b7f4e487b7100000000000000000000000000000000000000000000000000000000600052601160045260246000fd5b600062001b9182620019d4565b915062001b9e83620019d4565b925082820190508082111562001bb95762001bb862001b55565b5b92915050565b600062001bcc82620019d4565b91507fffffffffffffffffffffffffffffffffffffffffffffffffffffffffffffffff820362001c015762001c0062001b55565b5b600182019050919050565b600081519050919050565b600082825260208201905092915050565b6000819050602082019050919050565b62001c4381620019d4565b82525050565b600062001c57838362001c38565b60208301905092915050565b6000602082019050919050565b600062001c7d8262001c0c565b62001c89818562001c17565b935062001c968362001c28565b8060005b8381101562001ccd57815162001cb1888262001c49565b975062001cbe8362001c63565b92505060018101905062001c9a565b5085935050505092915050565b6000602082019050818103600083015262001cf6818462001c70565b905092915050565b60006dffffffffffffffffffffffffffff82169050919050565b62001d238162001cfe565b811462001d2f57600080fd5b50565b60008151905062001d438162001d18565b92915050565b600063ffffffff82169050919050565b62001d648162001d49565b811462001d7057600080fd5b50565b60008151905062001d848162001d59565b92915050565b60008060006060848603121562001da65762001da5620016dd565b5b600062001db68682870162001d32565b935050602062001dc98682870162001d32565b925050604062001ddc8682870162001d73565b9150509250925092565b62001df181620017d5565b82525050565b600060208201905062001e0e600083018462001de6565b92915050565b600081519050919050565b600081905092915050565b60005b8381101562001e4a57808201518184015260208101905062001e2d565b60008484015250505050565b600062001e638262001e14565b62001e6f818562001e1f565b935062001e8181856020860162001e2a565b80840191505092915050565b600062001e9b828462001e56565b915081905092915050565b60006020828403121562001ebf5762001ebe620016dd565b5b600062001ecf84828501620019f8565b91505092915050565b600061ffff82169050919050565b600062ffffff82169050919050565b6000819050919050565b600062001f2062001f1a62001f148462001ed8565b62001ef5565b62001ee6565b9050919050565b62001f328162001eff565b82525050565b600060608201905062001f4f600083018662001de6565b62001f5e602083018562001de6565b62001f6d604083018462001f27565b949350505050565b600060408201905062001f8c600083018562001de6565b62001f9b602083018462001de6565b9392505050565b600082825260208201905092915050565b7f6f766572666c6f772d3020696e206d756c363455000000000000000000000000600082015250565b600062001feb60148362001fa2565b915062001ff88262001fb3565b602082019050919050565b600060208201905081810360008301526200201e8162001fdc565b9050919050565b7f6f766572666c6f772d3120696e206d756c363455000000000000000000000000600082015250565b60006200205d60148362001fa2565b91506200206a8262002025565b602082019050919050565b6000602082019050818103600083015262002090816200204e565b9050919050565b600060ff82169050919050565b6000620020b18262002097565b9150620020be8362002097565b9250828203905060ff811115620020da57620020d962001b55565b5b92915050565b60008160011c9050919050565b6000808291508390505b60018511156200213f5780860481111562002117576200211662001b55565b5b6001851615620021275780820291505b80810290506200213785620020e0565b9450620020f7565b94509492505050565b6000826200215a57600190506200222d565b816200216a57600090506200222d565b81600181146200218357600281146200218e57620021c4565b60019150506200222d565b60ff841115620021a357620021a262001b55565b5b8360020a915084821115620021bd57620021bc62001b55565b5b506200222d565b5060208310610133831016604e8410600b8410161715620021fe5782820a905083811115620021f857620021f762001b55565b5b6200222d565b6200220d8484846001620020ed565b9250905081840481111562002227576200222662001b55565b5b81810290505b9392505050565b60006200224182620019d4565b91506200224e8362002097565b92506200227d7fffffffffffffffffffffffffffffffffffffffffffffffffffffffffffffffff848462002148565b905092915050565b7f4e487b7100000000000000000000000000000000000000000000000000000000600052601260045260246000fd5b6000620022c182620019d4565b9150620022ce83620019d4565b925082620022e157620022e062002285565b5b828204905092915050565b6000620022f982620019d4565b91506200230683620019d4565b9250817fffffffffffffffffffffffffffffffffffffffffffffffffffffffffffffffff048311821515161562002342576200234162001b55565b5b828202905092915050565b7f4e487b7100000000000000000000000000000000000000000000000000000000600052600160045260246000fdfe",
        "linkReferences": {}
    },
    "deployedBytecode": {
        "object": "0x608060405234801561001057600080fd5b506004361061002b5760003560e01c80630ed45c8e14610030575b600080fd5b61004a600480360381019061004591906100f2565b610060565b604051610057919061014a565b60405180910390f35b60006020528060005260406000206000915054906101000a90046fffffffffffffffffffffffffffffffff1681565b600080fd5b600073ffffffffffffffffffffffffffffffffffffffff82169050919050565b60006100bf82610094565b9050919050565b6100cf816100b4565b81146100da57600080fd5b50565b6000813590506100ec816100c6565b92915050565b6000602082840312156101085761010761008f565b5b6000610116848285016100dd565b91505092915050565b60006fffffffffffffffffffffffffffffffff82169050919050565b6101448161011f565b82525050565b600060208201905061015f600083018461013b565b9291505056fea2646970667358221220719337d293d7f8b664ca49dfa9666a07a100cd2f561bf52b970bb13d2923af3a64736f6c63430008100033",
        "linkReferences": {}
    },
    "methodIdentifiers": {
        "tokenToWethPrices(address)": "0ed45c8e"
    },
    "id": 0
}