{
  "abi": [
    {
      "inputs": [
        {
          "internalType": "address[]",
          "name": "pools",
          "type": "address[]"
        },
        {
          "internalType": "address[]",
          "name": "dexes",
          "type": "address[]"
        },
        {
          "internalType": "bool[]",
          "name": "dexIsUniV3",
          "type": "bool[]"
        },
        {
          "internalType": "address",
          "name": "weth",
          "type": "address"
        },
        {
          "internalType": "uint256",
          "name": "wethInPoolThreshold",
          "type": "uint256"
        }
      ],
      "stateMutability": "nonpayable",
      "type": "constructor"
    },
    {
      "inputs": [
        {
          "internalType": "address",
          "name": "",
          "type": "address"
        }
      ],
      "name": "tokenToWethPrices",
      "outputs": [
        {
          "internalType": "uint128",
          "name": "",
          "type": "uint128"
        }
      ],
      "stateMutability": "view",
      "type": "function"
    }
  ],
  "bytecode": {
    "object": "0x60806040523480156200001157600080fd5b50604051620020bb380380620020bb83398181016040528101906200003791906200165a565b6000855167ffffffffffffffff81111562000057576200005662001348565b5b604051908082528060200260200182016040528015620000865781602001602082028036833780820191505090505b50905060005b865181101562000271576000878281518110620000ae57620000ad6200173f565b5b602002602001015173ffffffffffffffffffffffffffffffffffffffff16630dfe16816040518163ffffffff1660e01b8152600401602060405180830381865afa15801562000101573d6000803e3d6000fd5b505050506040513d601f19601f820116820180604052508101906200012791906200176e565b905060008883815181106200014157620001406200173f565b5b602002602001015173ffffffffffffffffffffffffffffffffffffffff1663d21220a76040518163ffffffff1660e01b8152600401602060405180830381865afa15801562000194573d6000803e3d6000fd5b505050506040513d601f19601f82011682018060405250810190620001ba91906200176e565b9050600080620001ef8b8681518110620001d957620001d86200173f565b5b60200260200101518585620002a260201b60201c565b9150915060006200020b858a858e8e8d6200048560201b60201c565b9050600062000225858b858f8f8e6200048560201b60201c565b90508082620002359190620017cf565b8888815181106200024b576200024a6200173f565b5b6020026020010181815250505050505050508062000269906200180a565b90506200008c565b5060008160405160200162000287919062001925565b60405160208183030381529060405290506020810180590381f35b600080600080620002b9876200061e60201b60201c565b1562000367576000808873ffffffffffffffffffffffffffffffffffffffff16630902f1ac6040518163ffffffff1660e01b8152600401606060405180830381865afa1580156200030e573d6000803e3d6000fd5b505050506040513d601f19601f82011682018060405250810190620003349190620019d5565b5091509150816dffffffffffffffffffffffffffff169350806dffffffffffffffffffffffffffff169250505062000381565b62000378876200065c60201b60201c565b80925081935050505b6200047782828873ffffffffffffffffffffffffffffffffffffffff1663313ce5676040518163ffffffff1660e01b8152600401602060405180830381865afa158015620003d3573d6000803e3d6000fd5b505050506040513d601f19601f82011682018060405250810190620003f9919062001a6f565b8873ffffffffffffffffffffffffffffffffffffffff1663313ce5676040518163ffffffff1660e01b8152600401602060405180830381865afa15801562000445573d6000803e3d6000fd5b505050506040513d601f19601f820116820180604052508101906200046b919062001a6f565b620008aa60201b60201c565b935093505050935093915050565b6000806000808973ffffffffffffffffffffffffffffffffffffffff1673ffffffffffffffffffffffffffffffffffffffff16815260200190815260200160002060009054906101000a90046fffffffffffffffffffffffffffffffff1690506001816fffffffffffffffffffffffffffffffff16036200050b57600091505062000614565b60005b8551811015620005975760006200056b8a8a8a868b87815181106200053857620005376200173f565b5b60200260200101518b88815181106200055657620005556200173f565b5b60200260200101518b6200096e60201b60201c565b905060008114620005825780935050505062000614565b50806200058f906200180a565b90506200050e565b5060016000808a73ffffffffffffffffffffffffffffffffffffffff1673ffffffffffffffffffffffffffffffffffffffff16815260200190815260200160002060006101000a8154816fffffffffffffffffffffffffffffffff02191690836fffffffffffffffffffffffffffffffff16021790555060009150505b9695505050505050565b6000807fddca3f43000000000000000000000000000000000000000000000000000000006000526000806004600080875af190508015915050919050565b60008060008373ffffffffffffffffffffffffffffffffffffffff16633850c7bd6040518163ffffffff1660e01b815260040160e060405180830381865afa158015620006ad573d6000803e3d6000fd5b505050506040513d601f19601f82011682018060405250810190620006d3919062001b4f565b505050505050905060008473ffffffffffffffffffffffffffffffffffffffff16631a6865026040518163ffffffff1660e01b8152600401602060405180830381865afa15801562000729573d6000803e3d6000fd5b505050506040513d601f19601f820116820180604052508101906200074f919062001c4f565b905060008273ffffffffffffffffffffffffffffffffffffffff166c010000000000000000000000008162000789576200078862001c81565b5b0490506000606068010000000000000000846fffffffffffffffffffffffffffffffff16168302901c905060006060846fffffffffffffffffffffffffffffffff16901c830290506000606068010000000000000000866fffffffffffffffffffffffffffffffff16168773ffffffffffffffffffffffffffffffffffffffff1602901c905060006060866fffffffffffffffffffffffffffffffff16901c8773ffffffffffffffffffffffffffffffffffffffff16029050606083901b9250606081901b90506fffffffffffffffffffffffffffffffff80168311156200087057600080fd5b6fffffffffffffffffffffffffffffffff80168111156200089057600080fd5b838301828201809950819a50505050505050505050915091565b60008060128460ff161115620008ea57601284620008c9919062001cb0565b600a620008d7919062001e40565b86620008e4919062001e91565b62000907565b836012620008f9919062001cb0565b8662000906919062001e40565b5b915060128360ff161115620009465760128362000925919062001cb0565b600a62000933919062001e40565b8562000940919062001e91565b62000963565b82601262000955919062001cb0565b8562000962919062001e40565b5b905094509492505050565b60008673ffffffffffffffffffffffffffffffffffffffff168873ffffffffffffffffffffffffffffffffffffffff1603620009ad5785905062000d05565b6001856fffffffffffffffffffffffffffffffff161115620009e357620009db858762000d1060201b60201c565b905062000d05565b821562000bc457600060405180606001604052806101f461ffff168152602001610bb861ffff16815260200161271061ffff16815250905060005b600381101562000bbc5760008673ffffffffffffffffffffffffffffffffffffffff16631698ee828b73ffffffffffffffffffffffffffffffffffffffff168d73ffffffffffffffffffffffffffffffffffffffff161062000a81578b62000a83565b8c5b8d73ffffffffffffffffffffffffffffffffffffffff168d73ffffffffffffffffffffffffffffffffffffffff161062000abe578d62000ac0565b8c5b86866003811062000ad65762000ad56200173f565b5b60200201516040518463ffffffff1660e01b815260040162000afb9392919062001f2c565b602060405180830381865afa15801562000b19573d6000803e3d6000fd5b505050506040513d601f19601f8201168201806040525081019062000b3f91906200176e565b9050600073ffffffffffffffffffffffffffffffffffffffff168173ffffffffffffffffffffffffffffffffffffffff161462000ba757600062000b8d8c8b8d858a62000dfa60201b60201c565b90506000811462000ba5578094505050505062000d05565b505b508062000bb4906200180a565b905062000a1e565b505062000d00565b60008773ffffffffffffffffffffffffffffffffffffffff168973ffffffffffffffffffffffffffffffffffffffff1610905060008573ffffffffffffffffffffffffffffffffffffffff1663e6a439058362000c22578a62000c24565b8b5b8462000c31578c62000c33565b8b5b6040518363ffffffff1660e01b815260040162000c5292919062001f69565b602060405180830381865afa15801562000c70573d6000803e3d6000fd5b505050506040513d601f19601f8201168201806040525081019062000c9691906200176e565b9050600073ffffffffffffffffffffffffffffffffffffffff168173ffffffffffffffffffffffffffffffffffffffff161462000cfd57600062000ce48b8a8c858962000f4c60201b60201c565b90506000811462000cfb5780935050505062000d05565b505b50505b600090505b979650505050505050565b60008082148062000d3357506000836fffffffffffffffffffffffffffffffff16145b1562000d43576000905062000df4565b600060406fffffffffffffffffffffffffffffffff8416856fffffffffffffffffffffffffffffffff1602901c90506000608084901c856fffffffffffffffffffffffffffffffff1602905077ffffffffffffffffffffffffffffffffffffffffffffffff81111562000db557600080fd5b604081901b9050817fffffffffffffffffffffffffffffffffffffffffffffffffffffffffffffffff0381111562000dec57600080fd5b818101925050505b92915050565b6000808473ffffffffffffffffffffffffffffffffffffffff168773ffffffffffffffffffffffffffffffffffffffff1610905060008062000e42866200065c60201b60201c565b91509150821562000e69578482101562000e63576000935050505062000f43565b62000e80565b8481101562000e7f576000935050505062000f43565b5b60008362000ea05762000e9a8383620010b960201b60201c565b62000eb3565b62000eb28284620010b960201b60201c565b5b9050806000808c73ffffffffffffffffffffffffffffffffffffffff1673ffffffffffffffffffffffffffffffffffffffff16815260200190815260200160002060006101000a8154816fffffffffffffffffffffffffffffffff02191690836fffffffffffffffffffffffffffffffff16021790555062000f3c818a62000d1060201b60201c565b9450505050505b95945050505050565b6000808473ffffffffffffffffffffffffffffffffffffffff168773ffffffffffffffffffffffffffffffffffffffff1610905060008062000fb2868462000f95578862000f97565b8a5b8562000fa4578b62000fa6565b895b620002a260201b60201c565b91509150821562000fd9578482101562000fd35760009350505050620010b0565b62000ff0565b8481101562000fef5760009350505050620010b0565b5b6000620010208462001003578362001005565b825b8562001012578362001014565b845b620010b960201b60201c565b9050806000808c73ffffffffffffffffffffffffffffffffffffffff1673ffffffffffffffffffffffffffffffffffffffff16815260200190815260200160002060006101000a8154816fffffffffffffffffffffffffffffffff02191690836fffffffffffffffffffffffffffffffff160217905550620010a9818a62000d1060201b60201c565b9450505050505b95945050505050565b6000808203620010c857600080fd5b600077ffffffffffffffffffffffffffffffffffffffffffffffff84116200110a5782604085901b8162001101576200110062001c81565b5b049050620012be565b600060c09050600060c086901c905064010000000081106200113457602081901c90506020820191505b6201000081106200114d57601081901c90506010820191505b61010081106200116557600881901c90506008820191505b601081106200117c57600481901c90506004820191505b600481106200119357600281901c90506002820191505b60028110620011a3576001820191505b600160bf830360018703901c018260ff0387901b81620011c857620011c762001c81565b5b0492506fffffffffffffffffffffffffffffffff83111562001221576040517f08c379a0000000000000000000000000000000000000000000000000000000008152600401620012189062001ff7565b60405180910390fd5b6000608086901c8402905060006fffffffffffffffffffffffffffffffff871685029050600060c089901c9050600060408a901b90508281101562001267576001820391505b8281039050608084901b92508281101562001283576001820391505b8281039050608084901c82146200129f576200129e62002019565b5b888181620012b257620012b162001c81565b5b04870196505050505050505b6fffffffffffffffffffffffffffffffff81111562001314576040517f08c379a00000000000000000000000000000000000000000000000000000000081526004016200130b9062002098565b60405180910390fd5b8091505092915050565b6000604051905090565b600080fd5b600080fd5b600080fd5b6000601f19601f8301169050919050565b7f4e487b7100000000000000000000000000000000000000000000000000000000600052604160045260246000fd5b620013828262001337565b810181811067ffffffffffffffff82111715620013a457620013a362001348565b5b80604052505050565b6000620013b96200131e565b9050620013c7828262001377565b919050565b600067ffffffffffffffff821115620013ea57620013e962001348565b5b602082029050602081019050919050565b600080fd5b600073ffffffffffffffffffffffffffffffffffffffff82169050919050565b60006200142d8262001400565b9050919050565b6200143f8162001420565b81146200144b57600080fd5b50565b6000815190506200145f8162001434565b92915050565b60006200147c6200147684620013cc565b620013ad565b90508083825260208201905060208402830185811115620014a257620014a1620013fb565b5b835b81811015620014cf5780620014ba88826200144e565b845260208401935050602081019050620014a4565b5050509392505050565b600082601f830112620014f157620014f062001332565b5b81516200150384826020860162001465565b91505092915050565b600067ffffffffffffffff8211156200152a576200152962001348565b5b602082029050602081019050919050565b60008115159050919050565b62001552816200153b565b81146200155e57600080fd5b50565b600081519050620015728162001547565b92915050565b60006200158f62001589846200150c565b620013ad565b90508083825260208201905060208402830185811115620015b557620015b4620013fb565b5b835b81811015620015e25780620015cd888262001561565b845260208401935050602081019050620015b7565b5050509392505050565b600082601f83011262001604576200160362001332565b5b81516200161684826020860162001578565b91505092915050565b6000819050919050565b62001634816200161f565b81146200164057600080fd5b50565b600081519050620016548162001629565b92915050565b600080600080600060a0868803121562001679576200167862001328565b5b600086015167ffffffffffffffff8111156200169a57620016996200132d565b5b620016a888828901620014d9565b955050602086015167ffffffffffffffff811115620016cc57620016cb6200132d565b5b620016da88828901620014d9565b945050604086015167ffffffffffffffff811115620016fe57620016fd6200132d565b5b6200170c88828901620015ec565b93505060606200171f888289016200144e565b9250506080620017328882890162001643565b9150509295509295909350565b7f4e487b7100000000000000000000000000000000000000000000000000000000600052603260045260246000fd5b60006020828403121562001787576200178662001328565b5b600062001797848285016200144e565b91505092915050565b7f4e487b7100000000000000000000000000000000000000000000000000000000600052601160045260246000fd5b6000620017dc826200161f565b9150620017e9836200161f565b9250828201905080821115620018045762001803620017a0565b5b92915050565b600062001817826200161f565b91507fffffffffffffffffffffffffffffffffffffffffffffffffffffffffffffffff82036200184c576200184b620017a0565b5b600182019050919050565b600081519050919050565b600082825260208201905092915050565b6000819050602082019050919050565b6200188e816200161f565b82525050565b6000620018a2838362001883565b60208301905092915050565b6000602082019050919050565b6000620018c88262001857565b620018d4818562001862565b9350620018e18362001873565b8060005b8381101562001918578151620018fc888262001894565b97506200190983620018ae565b925050600181019050620018e5565b5085935050505092915050565b60006020820190508181036000830152620019418184620018bb565b905092915050565b60006dffffffffffffffffffffffffffff82169050919050565b6200196e8162001949565b81146200197a57600080fd5b50565b6000815190506200198e8162001963565b92915050565b600063ffffffff82169050919050565b620019af8162001994565b8114620019bb57600080fd5b50565b600081519050620019cf81620019a4565b92915050565b600080600060608486031215620019f157620019f062001328565b5b600062001a01868287016200197d565b935050602062001a14868287016200197d565b925050604062001a2786828701620019be565b9150509250925092565b600060ff82169050919050565b62001a498162001a31565b811462001a5557600080fd5b50565b60008151905062001a698162001a3e565b92915050565b60006020828403121562001a885762001a8762001328565b5b600062001a988482850162001a58565b91505092915050565b62001aac8162001400565b811462001ab857600080fd5b50565b60008151905062001acc8162001aa1565b92915050565b60008160020b9050919050565b62001aea8162001ad2565b811462001af657600080fd5b50565b60008151905062001b0a8162001adf565b92915050565b600061ffff82169050919050565b62001b298162001b10565b811462001b3557600080fd5b50565b60008151905062001b498162001b1e565b92915050565b600080600080600080600060e0888a03121562001b715762001b7062001328565b5b600062001b818a828b0162001abb565b975050602062001b948a828b0162001af9565b965050604062001ba78a828b0162001b38565b955050606062001bba8a828b0162001b38565b945050608062001bcd8a828b0162001b38565b93505060a062001be08a828b0162001a58565b92505060c062001bf38a828b0162001561565b91505092959891949750929550565b60006fffffffffffffffffffffffffffffffff82169050919050565b62001c298162001c02565b811462001c3557600080fd5b50565b60008151905062001c498162001c1e565b92915050565b60006020828403121562001c685762001c6762001328565b5b600062001c788482850162001c38565b91505092915050565b7f4e487b7100000000000000000000000000000000000000000000000000000000600052601260045260246000fd5b600062001cbd8262001a31565b915062001cca8362001a31565b9250828203905060ff81111562001ce65762001ce5620017a0565b5b92915050565b60008160011c9050919050565b6000808291508390505b600185111562001d4b5780860481111562001d235762001d22620017a0565b5b600185161562001d335780820291505b808102905062001d438562001cec565b945062001d03565b94509492505050565b60008262001d66576001905062001e39565b8162001d76576000905062001e39565b816001811462001d8f576002811462001d9a5762001dd0565b600191505062001e39565b60ff84111562001daf5762001dae620017a0565b5b8360020a91508482111562001dc95762001dc8620017a0565b5b5062001e39565b5060208310610133831016604e8410600b841016171562001e0a5782820a90508381111562001e045762001e03620017a0565b5b62001e39565b62001e19848484600162001cf9565b9250905081840481111562001e335762001e32620017a0565b5b81810290505b9392505050565b600062001e4d826200161f565b915062001e5a8362001a31565b925062001e897fffffffffffffffffffffffffffffffffffffffffffffffffffffffffffffffff848462001d54565b905092915050565b600062001e9e826200161f565b915062001eab836200161f565b92508262001ebe5762001ebd62001c81565b5b828204905092915050565b62001ed48162001420565b82525050565b600062ffffff82169050919050565b6000819050919050565b600062001f1462001f0e62001f088462001b10565b62001ee9565b62001eda565b9050919050565b62001f268162001ef3565b82525050565b600060608201905062001f43600083018662001ec9565b62001f52602083018562001ec9565b62001f61604083018462001f1b565b949350505050565b600060408201905062001f80600083018562001ec9565b62001f8f602083018462001ec9565b9392505050565b600082825260208201905092915050565b7f6f766572666c6f7720696e206469767575000000000000000000000000000000600082015250565b600062001fdf60118362001f96565b915062001fec8262001fa7565b602082019050919050565b60006020820190508181036000830152620020128162001fd0565b9050919050565b7f4e487b7100000000000000000000000000000000000000000000000000000000600052600160045260246000fd5b7f6f766572666c6f7720696e206469767575206c61737400000000000000000000600082015250565b60006200208060168362001f96565b91506200208d8262002048565b602082019050919050565b60006020820190508181036000830152620020b38162002071565b905091905056fe",
    "linkReferences": {}
  },
  "deployedBytecode": {
    "object": "0x608060405234801561001057600080fd5b506004361061002b5760003560e01c80630ed45c8e14610030575b600080fd5b61004a600480360381019061004591906100f2565b610060565b604051610057919061014a565b60405180910390f35b60006020528060005260406000206000915054906101000a90046fffffffffffffffffffffffffffffffff1681565b600080fd5b600073ffffffffffffffffffffffffffffffffffffffff82169050919050565b60006100bf82610094565b9050919050565b6100cf816100b4565b81146100da57600080fd5b50565b6000813590506100ec816100c6565b92915050565b6000602082840312156101085761010761008f565b5b6000610116848285016100dd565b91505092915050565b60006fffffffffffffffffffffffffffffffff82169050919050565b6101448161011f565b82525050565b600060208201905061015f600083018461013b565b9291505056fea2646970667358221220256cc6ae8c37e04a1d2851c69941f71a04d306bdab959f4f38dd3e17aade9fc364736f6c63430008100033",
    "linkReferences": {}
  },
  "methodIdentifiers": {
    "tokenToWethPrices(address)": "0ed45c8e"
  },
  "id": 4
}