{
    "abi": [
        {
            "inputs": [
                {
                    "internalType": "address[]",
                    "name": "pools",
                    "type": "address[]"
                },
                {
                    "internalType": "address[]",
                    "name": "dexes",
                    "type": "address[]"
                },
                {
                    "internalType": "bool[]",
                    "name": "dexIsUniV3",
                    "type": "bool[]"
                },
                {
                    "internalType": "address",
                    "name": "weth",
                    "type": "address"
                },
                {
                    "internalType": "uint256",
                    "name": "wethInPoolThreshold",
                    "type": "uint256"
                }
            ],
            "stateMutability": "nonpayable",
            "type": "constructor"
        },
        {
            "inputs": [
                {
                    "internalType": "address",
                    "name": "",
                    "type": "address"
                }
            ],
            "name": "tokenToWethPrices",
            "outputs": [
                {
                    "internalType": "uint128",
                    "name": "",
                    "type": "uint128"
                }
            ],
            "stateMutability": "view",
            "type": "function"
        }
    ],
    "bytecode": {
        "object": "0x60806040523480156200001157600080fd5b506040516200275a3803806200275a833981810160405281019062000037919062001b05565b6000855167ffffffffffffffff811115620000575762000056620017f3565b5b604051908082528060200260200182016040528015620000865781602001602082028036833780820191505090505b50905060005b86518110156200032d57620000c4878281518110620000b057620000af62001bea565b5b60200260200101516200035e60201b60201c565b620002f4576000878281518110620000e157620000e062001bea565b5b602002602001015173ffffffffffffffffffffffffffffffffffffffff16630dfe16816040518163ffffffff1660e01b8152600401602060405180830381865afa15801562000134573d6000803e3d6000fd5b505050506040513d601f19601f820116820180604052508101906200015a919062001c19565b9050600088838151811062000174576200017362001bea565b5b602002602001015173ffffffffffffffffffffffffffffffffffffffff1663d21220a76040518163ffffffff1660e01b8152600401602060405180830381865afa158015620001c7573d6000803e3d6000fd5b505050506040513d601f19601f82011682018060405250810190620001ed919062001c19565b905062000200826200035e60201b60201c565b1580156200021c57506200021a816200035e60201b60201c565b155b15620002c757600080620002558b86815181106200023f576200023e62001bea565b5b602002602001015185856200039360201b60201c565b91509150600062000271858a858e8e8d6200058160201b60201c565b905060006200028b858b858f8f8e6200058160201b60201c565b905080826200029b919062001c7a565b888881518110620002b157620002b062001bea565b5b60200260200101818152505050505050620002ec565b6000848481518110620002df57620002de62001bea565b5b6020026020010181815250505b505062000319565b60008282815181106200030c576200030b62001bea565b5b6020026020010181815250505b80620003259062001cb5565b90506200008c565b5060008160405160200162000343919062001dd0565b60405160208183030381529060405290506020810180590381f35b6000808273ffffffffffffffffffffffffffffffffffffffff163b036200038957600190506200038e565b600090505b919050565b600080600080620003aa876200071a60201b60201c565b1562000458576000808873ffffffffffffffffffffffffffffffffffffffff16630902f1ac6040518163ffffffff1660e01b8152600401606060405180830381865afa158015620003ff573d6000803e3d6000fd5b505050506040513d601f19601f8201168201806040525081019062000425919062001e80565b5091509150816dffffffffffffffffffffffffffff169350806dffffffffffffffffffffffffffff16925050506200055f565b8573ffffffffffffffffffffffffffffffffffffffff166370a08231886040518263ffffffff1660e01b815260040162000493919062001eed565b602060405180830381865afa158015620004b1573d6000803e3d6000fd5b505050506040513d601f19601f82011682018060405250810190620004d7919062001f0a565b8573ffffffffffffffffffffffffffffffffffffffff166370a08231896040518263ffffffff1660e01b815260040162000512919062001eed565b602060405180830381865afa15801562000530573d6000803e3d6000fd5b505050506040513d601f19601f8201168201806040525081019062000556919062001f0a565b80925081935050505b62000573828288886200075860201b60201c565b935093505050935093915050565b6000806000808973ffffffffffffffffffffffffffffffffffffffff1673ffffffffffffffffffffffffffffffffffffffff16815260200190815260200160002060009054906101000a90046fffffffffffffffffffffffffffffffff1690506001816fffffffffffffffffffffffffffffffff16036200060757600091505062000710565b60005b855181101562000693576000620006678a8a8a868b878151811062000634576200063362001bea565b5b60200260200101518b888151811062000652576200065162001bea565b5b60200260200101518b6200087e60201b60201c565b9050600081146200067e5780935050505062000710565b50806200068b9062001cb5565b90506200060a565b5060016000808a73ffffffffffffffffffffffffffffffffffffffff1673ffffffffffffffffffffffffffffffffffffffff16815260200190815260200160002060006101000a8154816fffffffffffffffffffffffffffffffff02191690836fffffffffffffffffffffffffffffffff16021790555060009150505b9695505050505050565b6000807fddca3f43000000000000000000000000000000000000000000000000000000006000526000806004600080875af190508015915050919050565b6000806000806200076f8662000c2060201b60201c565b91509150600080620007878762000c2060201b60201c565b91509150828015620007965750805b15620008715760128460ff161115620007d957601284620007b8919062001f49565b600a620007c69190620020d9565b8a620007d3919062002159565b62000804565b836012620007e8919062001f49565b600a620007f69190620020d9565b8a62000803919062002191565b5b955060128260ff161115620008435760128262000822919062001f49565b600a620008309190620020d9565b896200083d919062002159565b6200086e565b81601262000852919062001f49565b600a620008609190620020d9565b896200086d919062002191565b5b94505b5050505094509492505050565b60008673ffffffffffffffffffffffffffffffffffffffff168873ffffffffffffffffffffffffffffffffffffffff1603620008bd5785905062000c15565b6001856fffffffffffffffffffffffffffffffff161115620008f357620008eb858762000d9860201b60201c565b905062000c15565b821562000ad457600060405180606001604052806101f461ffff168152602001610bb861ffff16815260200161271061ffff16815250905060005b600381101562000acc5760008673ffffffffffffffffffffffffffffffffffffffff16631698ee828b73ffffffffffffffffffffffffffffffffffffffff168d73ffffffffffffffffffffffffffffffffffffffff161062000991578b62000993565b8c5b8c73ffffffffffffffffffffffffffffffffffffffff168e73ffffffffffffffffffffffffffffffffffffffff1610620009ce578d620009d0565b8c5b868660038110620009e657620009e562001bea565b5b60200201516040518463ffffffff1660e01b815260040162000a0b9392919062002252565b602060405180830381865afa15801562000a29573d6000803e3d6000fd5b505050506040513d601f19601f8201168201806040525081019062000a4f919062001c19565b9050600073ffffffffffffffffffffffffffffffffffffffff168173ffffffffffffffffffffffffffffffffffffffff161462000ab757600062000a9d8c8b8d858a62000ef260201b60201c565b90506000811462000ab5578094505050505062000c15565b505b508062000ac49062001cb5565b90506200092e565b505062000c10565b60008773ffffffffffffffffffffffffffffffffffffffff168973ffffffffffffffffffffffffffffffffffffffff1610905060008573ffffffffffffffffffffffffffffffffffffffff1663e6a439058362000b32578a62000b34565b8b5b8462000b41578c62000b43565b8b5b6040518363ffffffff1660e01b815260040162000b629291906200228f565b602060405180830381865afa15801562000b80573d6000803e3d6000fd5b505050506040513d601f19601f8201168201806040525081019062000ba6919062001c19565b9050600073ffffffffffffffffffffffffffffffffffffffff168173ffffffffffffffffffffffffffffffffffffffff161462000c0d57600062000bf48b8a8c85896200110460201b60201c565b90506000811462000c0b5780935050505062000c15565b505b50505b600090505b979650505050505050565b6000806000808473ffffffffffffffffffffffffffffffffffffffff166040516024016040516020818303038152906040527f313ce567000000000000000000000000000000000000000000000000000000007bffffffffffffffffffffffffffffffffffffffffffffffffffffffff19166020820180517bffffffffffffffffffffffffffffffffffffffffffffffffffffffff838183161783525050505060405162000ccf919062002335565b6000604051808303816000865af19150503d806000811462000d0e576040519150601f19603f3d011682016040523d82523d6000602084013e62000d13565b606091505b5091509150811562000d89576000602082510362000d79578180602001905181019062000d41919062001f0a565b9050600081148062000d53575060ff81115b1562000d69576000809450945050505062000d93565b8060019450945050505062000d93565b6000809450945050505062000d93565b6000809350935050505b915091565b60008082148062000dbb57506000836fffffffffffffffffffffffffffffffff16145b1562000dcb576000905062000eec565b600060406fffffffffffffffffffffffffffffffff8416856fffffffffffffffffffffffffffffffff1602901c90506000608084901c856fffffffffffffffffffffffffffffffff1602905077ffffffffffffffffffffffffffffffffffffffffffffffff81111562000e75576040517f08c379a000000000000000000000000000000000000000000000000000000000815260040162000e6c90620023af565b60405180910390fd5b604081901b9050817fffffffffffffffffffffffffffffffffffffffffffffffffffffffffffffffff0381111562000ee4576040517f08c379a000000000000000000000000000000000000000000000000000000000815260040162000edb9062002421565b60405180910390fd5b818101925050505b92915050565b600080600062000f08856200127160201b60201c565b9150915060008062000f9b84848a73ffffffffffffffffffffffffffffffffffffffff168d73ffffffffffffffffffffffffffffffffffffffff161062000f50578a62000f52565b8c5b8b73ffffffffffffffffffffffffffffffffffffffff168e73ffffffffffffffffffffffffffffffffffffffff161062000f8d578d62000f8f565b8b5b6200075860201b60201c565b915091508773ffffffffffffffffffffffffffffffffffffffff168a73ffffffffffffffffffffffffffffffffffffffff16101562000ff1578581101562000feb576000945050505050620010fb565b62001009565b8582101562001008576000945050505050620010fb565b5b60008873ffffffffffffffffffffffffffffffffffffffff168b73ffffffffffffffffffffffffffffffffffffffff16106200105757620010518383620015c060201b60201c565b6200106a565b620010698284620015c060201b60201c565b5b9050806000808d73ffffffffffffffffffffffffffffffffffffffff1673ffffffffffffffffffffffffffffffffffffffff16815260200190815260200160002060006101000a8154816fffffffffffffffffffffffffffffffff02191690836fffffffffffffffffffffffffffffffff160217905550620010f3818b62000d9860201b60201c565b955050505050505b95945050505050565b6000808473ffffffffffffffffffffffffffffffffffffffff168773ffffffffffffffffffffffffffffffffffffffff161090506000806200116a86846200114d57886200114f565b8a5b856200115c578b6200115e565b895b6200039360201b60201c565b9150915082156200119157848110156200118b576000935050505062001268565b620011a8565b84821015620011a7576000935050505062001268565b5b6000620011d884620011bb5783620011bd565b825b85620011ca5783620011cc565b845b620015c060201b60201c565b9050806000808c73ffffffffffffffffffffffffffffffffffffffff1673ffffffffffffffffffffffffffffffffffffffff16815260200190815260200160002060006101000a8154816fffffffffffffffffffffffffffffffff02191690836fffffffffffffffffffffffffffffffff16021790555062001261818a62000d9860201b60201c565b9450505050505b95945050505050565b60008060008373ffffffffffffffffffffffffffffffffffffffff16633850c7bd6040518163ffffffff1660e01b815260040160e060405180830381865afa158015620012c2573d6000803e3d6000fd5b505050506040513d601f19601f82011682018060405250810190620012e8919062002514565b505050505050905060008473ffffffffffffffffffffffffffffffffffffffff16631a6865026040518163ffffffff1660e01b8152600401602060405180830381865afa1580156200133e573d6000803e3d6000fd5b505050506040513d601f19601f8201168201806040525081019062001364919062002614565b90506000816fffffffffffffffffffffffffffffffff1614806200139e575060008273ffffffffffffffffffffffffffffffffffffffff16145b15620013b357600080935093505050620015bb565b60008273ffffffffffffffffffffffffffffffffffffffff16780100000000000000000000000000000000000000000000000081620013f757620013f66200212a565b5b0478ffffffffffffffffffffffffffffffffffffffffffffffffff1690506000606068010000000000000000846fffffffffffffffffffffffffffffffff16168302901c905060006060846fffffffffffffffffffffffffffffffff16901c830290506000606068010000000000000000866fffffffffffffffffffffffffffffffff16168773ffffffffffffffffffffffffffffffffffffffff1602901c905060006060866fffffffffffffffffffffffffffffffff16901c8773ffffffffffffffffffffffffffffffffffffffff16029050606083901b9250606081901b90507fffffffffffffffffffffffffffffffffffffffffffffffffffffffffffffffff8311156200153f576040517f08c379a0000000000000000000000000000000000000000000000000000000008152600401620015369062002696565b60405180910390fd5b7fffffffffffffffffffffffffffffffffffffffffffffffffffffffffffffffff811115620015a5576040517f08c379a00000000000000000000000000000000000000000000000000000000081526004016200159c9062002708565b60405180910390fd5b838301828201809950819a505050505050505050505b915091565b6000808203620015d45760009050620017c3565b600077ffffffffffffffffffffffffffffffffffffffffffffffff8411620016165782604085901b816200160d576200160c6200212a565b5b0490506200179a565b600060c09050600060c086901c905064010000000081106200164057602081901c90506020820191505b6201000081106200165957601081901c90506010820191505b61010081106200167157600881901c90506008820191505b601081106200168857600481901c90506004820191505b600481106200169f57600281901c90506002820191505b60028110620016af576001820191505b600160bf830360018703901c018260ff0387901b81620016d457620016d36200212a565b5b0492506fffffffffffffffffffffffffffffffff831115620016fd5760009350505050620017c3565b6000608086901c8402905060006fffffffffffffffffffffffffffffffff871685029050600060c089901c9050600060408a901b90508281101562001743576001820391505b8281039050608084901b9250828110156200175f576001820391505b8281039050608084901c82146200177b576200177a6200272a565b5b8881816200178e576200178d6200212a565b5b04870196505050505050505b6fffffffffffffffffffffffffffffffff811115620017be576000915050620017c3565b809150505b92915050565b6000604051905090565b600080fd5b600080fd5b600080fd5b6000601f19601f8301169050919050565b7f4e487b7100000000000000000000000000000000000000000000000000000000600052604160045260246000fd5b6200182d82620017e2565b810181811067ffffffffffffffff821117156200184f576200184e620017f3565b5b80604052505050565b600062001864620017c9565b905062001872828262001822565b919050565b600067ffffffffffffffff821115620018955762001894620017f3565b5b602082029050602081019050919050565b600080fd5b600073ffffffffffffffffffffffffffffffffffffffff82169050919050565b6000620018d882620018ab565b9050919050565b620018ea81620018cb565b8114620018f657600080fd5b50565b6000815190506200190a81620018df565b92915050565b600062001927620019218462001877565b62001858565b905080838252602082019050602084028301858111156200194d576200194c620018a6565b5b835b818110156200197a5780620019658882620018f9565b8452602084019350506020810190506200194f565b5050509392505050565b600082601f8301126200199c576200199b620017dd565b5b8151620019ae84826020860162001910565b91505092915050565b600067ffffffffffffffff821115620019d557620019d4620017f3565b5b602082029050602081019050919050565b60008115159050919050565b620019fd81620019e6565b811462001a0957600080fd5b50565b60008151905062001a1d81620019f2565b92915050565b600062001a3a62001a3484620019b7565b62001858565b9050808382526020820190506020840283018581111562001a605762001a5f620018a6565b5b835b8181101562001a8d578062001a78888262001a0c565b84526020840193505060208101905062001a62565b5050509392505050565b600082601f83011262001aaf5762001aae620017dd565b5b815162001ac184826020860162001a23565b91505092915050565b6000819050919050565b62001adf8162001aca565b811462001aeb57600080fd5b50565b60008151905062001aff8162001ad4565b92915050565b600080600080600060a0868803121562001b245762001b23620017d3565b5b600086015167ffffffffffffffff81111562001b455762001b44620017d8565b5b62001b538882890162001984565b955050602086015167ffffffffffffffff81111562001b775762001b76620017d8565b5b62001b858882890162001984565b945050604086015167ffffffffffffffff81111562001ba95762001ba8620017d8565b5b62001bb78882890162001a97565b935050606062001bca88828901620018f9565b925050608062001bdd8882890162001aee565b9150509295509295909350565b7f4e487b7100000000000000000000000000000000000000000000000000000000600052603260045260246000fd5b60006020828403121562001c325762001c31620017d3565b5b600062001c4284828501620018f9565b91505092915050565b7f4e487b7100000000000000000000000000000000000000000000000000000000600052601160045260246000fd5b600062001c878262001aca565b915062001c948362001aca565b925082820190508082111562001caf5762001cae62001c4b565b5b92915050565b600062001cc28262001aca565b91507fffffffffffffffffffffffffffffffffffffffffffffffffffffffffffffffff820362001cf75762001cf662001c4b565b5b600182019050919050565b600081519050919050565b600082825260208201905092915050565b6000819050602082019050919050565b62001d398162001aca565b82525050565b600062001d4d838362001d2e565b60208301905092915050565b6000602082019050919050565b600062001d738262001d02565b62001d7f818562001d0d565b935062001d8c8362001d1e565b8060005b8381101562001dc357815162001da7888262001d3f565b975062001db48362001d59565b92505060018101905062001d90565b5085935050505092915050565b6000602082019050818103600083015262001dec818462001d66565b905092915050565b60006dffffffffffffffffffffffffffff82169050919050565b62001e198162001df4565b811462001e2557600080fd5b50565b60008151905062001e398162001e0e565b92915050565b600063ffffffff82169050919050565b62001e5a8162001e3f565b811462001e6657600080fd5b50565b60008151905062001e7a8162001e4f565b92915050565b60008060006060848603121562001e9c5762001e9b620017d3565b5b600062001eac8682870162001e28565b935050602062001ebf8682870162001e28565b925050604062001ed28682870162001e69565b9150509250925092565b62001ee781620018cb565b82525050565b600060208201905062001f04600083018462001edc565b92915050565b60006020828403121562001f235762001f22620017d3565b5b600062001f338482850162001aee565b91505092915050565b600060ff82169050919050565b600062001f568262001f3c565b915062001f638362001f3c565b9250828203905060ff81111562001f7f5762001f7e62001c4b565b5b92915050565b60008160011c9050919050565b6000808291508390505b600185111562001fe45780860481111562001fbc5762001fbb62001c4b565b5b600185161562001fcc5780820291505b808102905062001fdc8562001f85565b945062001f9c565b94509492505050565b60008262001fff5760019050620020d2565b816200200f5760009050620020d2565b8160018114620020285760028114620020335762002069565b6001915050620020d2565b60ff84111562002048576200204762001c4b565b5b8360020a91508482111562002062576200206162001c4b565b5b50620020d2565b5060208310610133831016604e8410600b8410161715620020a35782820a9050838111156200209d576200209c62001c4b565b5b620020d2565b620020b2848484600162001f92565b92509050818404811115620020cc57620020cb62001c4b565b5b81810290505b9392505050565b6000620020e68262001aca565b9150620020f38362001f3c565b9250620021227fffffffffffffffffffffffffffffffffffffffffffffffffffffffffffffffff848462001fed565b905092915050565b7f4e487b7100000000000000000000000000000000000000000000000000000000600052601260045260246000fd5b6000620021668262001aca565b9150620021738362001aca565b9250826200218657620021856200212a565b5b828204905092915050565b60006200219e8262001aca565b9150620021ab8362001aca565b9250817fffffffffffffffffffffffffffffffffffffffffffffffffffffffffffffffff0483118215151615620021e757620021e662001c4b565b5b828202905092915050565b600061ffff82169050919050565b600062ffffff82169050919050565b6000819050919050565b60006200223a620022346200222e84620021f2565b6200220f565b62002200565b9050919050565b6200224c8162002219565b82525050565b600060608201905062002269600083018662001edc565b62002278602083018562001edc565b62002287604083018462002241565b949350505050565b6000604082019050620022a6600083018562001edc565b620022b5602083018462001edc565b9392505050565b600081519050919050565b600081905092915050565b60005b83811015620022f2578082015181840152602081019050620022d5565b60008484015250505050565b60006200230b82620022bc565b620023178185620022c7565b935062002329818560208601620022d2565b80840191505092915050565b6000620023438284620022fe565b915081905092915050565b600082825260208201905092915050565b7f6f766572666c6f772d3020696e206d756c363455000000000000000000000000600082015250565b6000620023976014836200234e565b9150620023a4826200235f565b602082019050919050565b60006020820190508181036000830152620023ca8162002388565b9050919050565b7f6f766572666c6f772d3120696e206d756c363455000000000000000000000000600082015250565b6000620024096014836200234e565b91506200241682620023d1565b602082019050919050565b600060208201905081810360008301526200243c81620023fa565b9050919050565b6200244e81620018ab565b81146200245a57600080fd5b50565b6000815190506200246e8162002443565b92915050565b60008160020b9050919050565b6200248c8162002474565b81146200249857600080fd5b50565b600081519050620024ac8162002481565b92915050565b620024bd81620021f2565b8114620024c957600080fd5b50565b600081519050620024dd81620024b2565b92915050565b620024ee8162001f3c565b8114620024fa57600080fd5b50565b6000815190506200250e81620024e3565b92915050565b600080600080600080600060e0888a031215620025365762002535620017d3565b5b6000620025468a828b016200245d565b9750506020620025598a828b016200249b565b96505060406200256c8a828b01620024cc565b95505060606200257f8a828b01620024cc565b9450506080620025928a828b01620024cc565b93505060a0620025a58a828b01620024fd565b92505060c0620025b88a828b0162001a0c565b91505092959891949750929550565b60006fffffffffffffffffffffffffffffffff82169050919050565b620025ee81620025c7565b8114620025fa57600080fd5b50565b6000815190506200260e81620025e3565b92915050565b6000602082840312156200262d576200262c620017d3565b5b60006200263d84828501620025fd565b91505092915050565b7f68695f7230000000000000000000000000000000000000000000000000000000600082015250565b60006200267e6005836200234e565b91506200268b8262002646565b602082019050919050565b60006020820190508181036000830152620026b1816200266f565b9050919050565b7f68695f7231000000000000000000000000000000000000000000000000000000600082015250565b6000620026f06005836200234e565b9150620026fd82620026b8565b602082019050919050565b600060208201905081810360008301526200272381620026e1565b9050919050565b7f4e487b7100000000000000000000000000000000000000000000000000000000600052600160045260246000fdfe",
        "linkReferences": {}
    },
    "deployedBytecode": {
        "object": "0x608060405234801561001057600080fd5b506004361061002b5760003560e01c80630ed45c8e14610030575b600080fd5b61004a600480360381019061004591906100f2565b610060565b604051610057919061014a565b60405180910390f35b60006020528060005260406000206000915054906101000a90046fffffffffffffffffffffffffffffffff1681565b600080fd5b600073ffffffffffffffffffffffffffffffffffffffff82169050919050565b60006100bf82610094565b9050919050565b6100cf816100b4565b81146100da57600080fd5b50565b6000813590506100ec816100c6565b92915050565b6000602082840312156101085761010761008f565b5b6000610116848285016100dd565b91505092915050565b60006fffffffffffffffffffffffffffffffff82169050919050565b6101448161011f565b82525050565b600060208201905061015f600083018461013b565b9291505056fea2646970667358221220325a245ef073e5c1cc23c933cca8d4da3f02f2f70f591dacdbc4fb12bd07b30664736f6c63430008100033",
        "linkReferences": {}
    },
    "methodIdentifiers": {
        "tokenToWethPrices(address)": "0ed45c8e"
    },
    "id": 0
}