{
    "abi": [
        {
            "inputs": [
                {
                    "internalType": "address[]",
                    "name": "pools",
                    "type": "address[]"
                },
                {
                    "internalType": "address[]",
                    "name": "dexes",
                    "type": "address[]"
                },
                {
                    "internalType": "bool[]",
                    "name": "dexIsUniV3",
                    "type": "bool[]"
                },
                {
                    "internalType": "address",
                    "name": "weth",
                    "type": "address"
                },
                {
                    "internalType": "uint256",
                    "name": "wethInPoolThreshold",
                    "type": "uint256"
                }
            ],
            "stateMutability": "nonpayable",
            "type": "constructor"
        },
        {
            "inputs": [
                {
                    "internalType": "address",
                    "name": "",
                    "type": "address"
                }
            ],
            "name": "tokenToWethPrices",
            "outputs": [
                {
                    "internalType": "uint128",
                    "name": "",
                    "type": "uint128"
                }
            ],
            "stateMutability": "view",
            "type": "function"
        }
    ],
    "bytecode": {
        "object": "0x60806040523480156200001157600080fd5b506040516200288d3803806200288d833981810160405281019062000037919062001c59565b6000855167ffffffffffffffff81111562000057576200005662001947565b5b604051908082528060200260200182016040528015620000865781602001602082028036833780820191505090505b50905060005b86518110156200032d57620000c4878281518110620000b057620000af62001d3e565b5b60200260200101516200035e60201b60201c565b620002f4576000878281518110620000e157620000e062001d3e565b5b602002602001015173ffffffffffffffffffffffffffffffffffffffff16630dfe16816040518163ffffffff1660e01b8152600401602060405180830381865afa15801562000134573d6000803e3d6000fd5b505050506040513d601f19601f820116820180604052508101906200015a919062001d6d565b9050600088838151811062000174576200017362001d3e565b5b602002602001015173ffffffffffffffffffffffffffffffffffffffff1663d21220a76040518163ffffffff1660e01b8152600401602060405180830381865afa158015620001c7573d6000803e3d6000fd5b505050506040513d601f19601f82011682018060405250810190620001ed919062001d6d565b905062000200826200035e60201b60201c565b1580156200021c57506200021a816200035e60201b60201c565b155b15620002c757600080620002558b86815181106200023f576200023e62001d3e565b5b602002602001015185856200039360201b60201c565b91509150600062000271858a858e8e8d620004ed60201b60201c565b905060006200028b858b858f8f8e620004ed60201b60201c565b905080826200029b919062001dce565b888881518110620002b157620002b062001d3e565b5b60200260200101818152505050505050620002ec565b6000848481518110620002df57620002de62001d3e565b5b6020026020010181815250505b505062000319565b60008282815181106200030c576200030b62001d3e565b5b6020026020010181815250505b80620003259062001e09565b90506200008c565b5060008160405160200162000343919062001f24565b60405160208183030381529060405290506020810180590381f35b6000808273ffffffffffffffffffffffffffffffffffffffff163b036200038957600190506200038e565b600090505b919050565b600080600080620003aa876200068660201b60201c565b1562000458576000808873ffffffffffffffffffffffffffffffffffffffff16630902f1ac6040518163ffffffff1660e01b8152600401606060405180830381865afa158015620003ff573d6000803e3d6000fd5b505050506040513d601f19601f8201168201806040525081019062000425919062001fd4565b5091509150816dffffffffffffffffffffffffffff169350806dffffffffffffffffffffffffffff169250505062000472565b6200046987620006c460201b60201c565b80925081935050505b600080620004868862000a1360201b60201c565b915091506000806200049e8962000a1360201b60201c565b91509150828015620004ad5750805b15620004d757620004c78686868562000b8b60201b60201c565b97509750505050505050620004e5565b600080975097505050505050505b935093915050565b6000806000808973ffffffffffffffffffffffffffffffffffffffff1673ffffffffffffffffffffffffffffffffffffffff16815260200190815260200160002060009054906101000a90046fffffffffffffffffffffffffffffffff1690506001816fffffffffffffffffffffffffffffffff1603620005735760009150506200067c565b60005b8551811015620005ff576000620005d38a8a8a868b8781518110620005a0576200059f62001d3e565b5b60200260200101518b8881518110620005be57620005bd62001d3e565b5b60200260200101518b62000c6b60201b60201c565b905060008114620005ea578093505050506200067c565b5080620005f79062001e09565b905062000576565b5060016000808a73ffffffffffffffffffffffffffffffffffffffff1673ffffffffffffffffffffffffffffffffffffffff16815260200190815260200160002060006101000a8154816fffffffffffffffffffffffffffffffff02191690836fffffffffffffffffffffffffffffffff16021790555060009150505b9695505050505050565b6000807fddca3f43000000000000000000000000000000000000000000000000000000006000526000806004600080875af190508015915050919050565b60008060008373ffffffffffffffffffffffffffffffffffffffff16633850c7bd6040518163ffffffff1660e01b815260040160e060405180830381865afa15801562000715573d6000803e3d6000fd5b505050506040513d601f19601f820116820180604052508101906200073b91906200211c565b505050505050905060008473ffffffffffffffffffffffffffffffffffffffff16631a6865026040518163ffffffff1660e01b8152600401602060405180830381865afa15801562000791573d6000803e3d6000fd5b505050506040513d601f19601f82011682018060405250810190620007b791906200221c565b90506000816fffffffffffffffffffffffffffffffff161480620007f1575060008273ffffffffffffffffffffffffffffffffffffffff16145b15620008065760008093509350505062000a0e565b60008273ffffffffffffffffffffffffffffffffffffffff167801000000000000000000000000000000000000000000000000816200084a57620008496200224e565b5b0478ffffffffffffffffffffffffffffffffffffffffffffffffff1690506000606068010000000000000000846fffffffffffffffffffffffffffffffff16168302901c905060006060846fffffffffffffffffffffffffffffffff16901c830290506000606068010000000000000000866fffffffffffffffffffffffffffffffff16168773ffffffffffffffffffffffffffffffffffffffff1602901c905060006060866fffffffffffffffffffffffffffffffff16901c8773ffffffffffffffffffffffffffffffffffffffff16029050606083901b9250606081901b90507fffffffffffffffffffffffffffffffffffffffffffffffffffffffffffffffff83111562000992576040517f08c379a00000000000000000000000000000000000000000000000000000000081526004016200098990620022de565b60405180910390fd5b7fffffffffffffffffffffffffffffffffffffffffffffffffffffffffffffffff811115620009f8576040517f08c379a0000000000000000000000000000000000000000000000000000000008152600401620009ef9062002350565b60405180910390fd5b838301828201809950819a505050505050505050505b915091565b6000806000808473ffffffffffffffffffffffffffffffffffffffff166040516024016040516020818303038152906040527f313ce567000000000000000000000000000000000000000000000000000000007bffffffffffffffffffffffffffffffffffffffffffffffffffffffff19166020820180517bffffffffffffffffffffffffffffffffffffffffffffffffffffffff838183161783525050505060405162000ac29190620023eb565b6000604051808303816000865af19150503d806000811462000b01576040519150601f19603f3d011682016040523d82523d6000602084013e62000b06565b606091505b5091509150811562000b7c576000602082510362000b6c578180602001905181019062000b34919062002404565b9050600081148062000b46575060ff81115b1562000b5c576000809450945050505062000b86565b8060019450945050505062000b86565b6000809450945050505062000b86565b6000809350935050505b915091565b60008060128460ff16111562000bcb5760128462000baa919062002436565b600a62000bb89190620025c6565b8662000bc5919062002617565b62000bf6565b83601262000bda919062002436565b600a62000be89190620025c6565b8662000bf591906200264f565b5b915060128360ff16111562000c355760128362000c14919062002436565b600a62000c229190620025c6565b8562000c2f919062002617565b62000c60565b82601262000c44919062002436565b600a62000c529190620025c6565b8562000c5f91906200264f565b5b905094509492505050565b60008673ffffffffffffffffffffffffffffffffffffffff168873ffffffffffffffffffffffffffffffffffffffff160362000caa5785905062001018565b6001856fffffffffffffffffffffffffffffffff16111562000ce05762000cd885876200102360201b60201c565b905062001018565b821562000ed757600060405180606001604052806101f461ffff168152602001610bb861ffff16815260200161271061ffff16815250905060005b600381101562000ecf5760008673ffffffffffffffffffffffffffffffffffffffff16631698ee828b73ffffffffffffffffffffffffffffffffffffffff168d73ffffffffffffffffffffffffffffffffffffffff161062000d7e578b62000d80565b8c5b8c73ffffffffffffffffffffffffffffffffffffffff168e73ffffffffffffffffffffffffffffffffffffffff161062000dbb578d62000dbd565b8c5b86866003811062000dd35762000dd262001d3e565b5b60200201516040518463ffffffff1660e01b815260040162000df89392919062002713565b602060405180830381865afa15801562000e16573d6000803e3d6000fd5b505050506040513d601f19601f8201168201806040525081019062000e3c919062001d6d565b905062000e54816200110d60201b6200008f1760201c565b600073ffffffffffffffffffffffffffffffffffffffff168173ffffffffffffffffffffffffffffffffffffffff161462000eba57600062000ea08c8b8d858a620011b060201b60201c565b90506000811462000eb8578094505050505062001018565b505b508062000ec79062001e09565b905062000d1b565b505062001013565b60008773ffffffffffffffffffffffffffffffffffffffff168973ffffffffffffffffffffffffffffffffffffffff1610905060008573ffffffffffffffffffffffffffffffffffffffff1663e6a439058362000f35578a62000f37565b8b5b8462000f44578c62000f46565b8b5b6040518363ffffffff1660e01b815260040162000f6592919062002750565b602060405180830381865afa15801562000f83573d6000803e3d6000fd5b505050506040513d601f19601f8201168201806040525081019062000fa9919062001d6d565b9050600073ffffffffffffffffffffffffffffffffffffffff168173ffffffffffffffffffffffffffffffffffffffff16146200101057600062000ff78b8a8c8589620014dd60201b60201c565b9050600081146200100e5780935050505062001018565b505b50505b600090505b979650505050505050565b6000808214806200104657506000836fffffffffffffffffffffffffffffffff16145b1562001056576000905062001107565b600060406fffffffffffffffffffffffffffffffff8416856fffffffffffffffffffffffffffffffff1602901c90506000608084901c856fffffffffffffffffffffffffffffffff1602905077ffffffffffffffffffffffffffffffffffffffffffffffff811115620010c857600080fd5b604081901b9050817fffffffffffffffffffffffffffffffffffffffffffffffffffffffffffffffff03811115620010ff57600080fd5b818101925050505b92915050565b620011ad816040516024016200112491906200277d565b6040516020818303038152906040527f2c2ecbc2000000000000000000000000000000000000000000000000000000007bffffffffffffffffffffffffffffffffffffffffffffffffffffffff19166020820180517bffffffffffffffffffffffffffffffffffffffffffffffffffffffff83818316178352505050506200164a60201b60201c565b50565b6000808473ffffffffffffffffffffffffffffffffffffffff168773ffffffffffffffffffffffffffffffffffffffff16109050600080620011f886620006c460201b60201c565b915091506000806200136f84848b73ffffffffffffffffffffffffffffffffffffffff168e73ffffffffffffffffffffffffffffffffffffffff161062001241576012620012b4565b8d73ffffffffffffffffffffffffffffffffffffffff1663313ce5676040518163ffffffff1660e01b8152600401602060405180830381865afa1580156200128d573d6000803e3d6000fd5b505050506040513d601f19601f82011682018060405250810190620012b391906200279a565b5b8c73ffffffffffffffffffffffffffffffffffffffff168f73ffffffffffffffffffffffffffffffffffffffff161062001360578e73ffffffffffffffffffffffffffffffffffffffff1663313ce5676040518163ffffffff1660e01b8152600401602060405180830381865afa15801562001334573d6000803e3d6000fd5b505050506040513d601f19601f820116820180604052508101906200135a91906200279a565b62001363565b60125b62000b8b60201b60201c565b9150915084156200139857868110156200139257600095505050505050620014d4565b620013b1565b86821015620013b057600095505050505050620014d4565b5b600085620013d157620013cb83836200167360201b60201c565b620013e4565b620013e382846200167360201b60201c565b5b9050620014446040518060400160405280600381526020017f7576330000000000000000000000000000000000000000000000000000000000815250826fffffffffffffffffffffffffffffffff166200187760201b620001281760201c565b806000808e73ffffffffffffffffffffffffffffffffffffffff1673ffffffffffffffffffffffffffffffffffffffff16815260200190815260200160002060006101000a8154816fffffffffffffffffffffffffffffffff02191690836fffffffffffffffffffffffffffffffff160217905550620014cb818c6200102360201b60201c565b96505050505050505b95945050505050565b6000808473ffffffffffffffffffffffffffffffffffffffff168773ffffffffffffffffffffffffffffffffffffffff1610905060008062001543868462001526578862001528565b8a5b8562001535578b62001537565b895b6200039360201b60201c565b9150915082156200156a578481101562001564576000935050505062001641565b62001581565b8482101562001580576000935050505062001641565b5b6000620015b18462001594578362001596565b825b85620015a35783620015a5565b845b6200167360201b60201c565b9050806000808c73ffffffffffffffffffffffffffffffffffffffff1673ffffffffffffffffffffffffffffffffffffffff16815260200190815260200160002060006101000a8154816fffffffffffffffffffffffffffffffff02191690836fffffffffffffffffffffffffffffffff1602179055506200163a818a6200102360201b60201c565b9450505050505b95945050505050565b60008151905060006a636f6e736f6c652e6c6f679050602083016000808483855afa5050505050565b60008082036200168257600080fd5b600077ffffffffffffffffffffffffffffffffffffffffffffffff8411620016c45782604085901b81620016bb57620016ba6200224e565b5b04905062001848565b600060c09050600060c086901c90506401000000008110620016ee57602081901c90506020820191505b6201000081106200170757601081901c90506010820191505b61010081106200171f57600881901c90506008820191505b601081106200173657600481901c90506004820191505b600481106200174d57600281901c90506002820191505b600281106200175d576001820191505b600160bf830360018703901c018260ff0387901b816200178257620017816200224e565b5b0492506fffffffffffffffffffffffffffffffff831115620017ab576000935050505062001871565b6000608086901c8402905060006fffffffffffffffffffffffffffffffff871685029050600060c089901c9050600060408a901b905082811015620017f1576001820391505b8281039050608084901b9250828110156200180d576001820391505b8281039050608084901c8214620018295762001828620027cc565b5b8881816200183c576200183b6200224e565b5b04870196505050505050505b6fffffffffffffffffffffffffffffffff8111156200186c57600091505062001871565b809150505b92915050565b6200191982826040516024016200189092919062002858565b6040516020818303038152906040527f9710a9d0000000000000000000000000000000000000000000000000000000007bffffffffffffffffffffffffffffffffffffffffffffffffffffffff19166020820180517bffffffffffffffffffffffffffffffffffffffffffffffffffffffff83818316178352505050506200164a60201b60201c565b5050565b6000604051905090565b600080fd5b600080fd5b600080fd5b6000601f19601f8301169050919050565b7f4e487b7100000000000000000000000000000000000000000000000000000000600052604160045260246000fd5b620019818262001936565b810181811067ffffffffffffffff82111715620019a357620019a262001947565b5b80604052505050565b6000620019b86200191d565b9050620019c6828262001976565b919050565b600067ffffffffffffffff821115620019e957620019e862001947565b5b602082029050602081019050919050565b600080fd5b600073ffffffffffffffffffffffffffffffffffffffff82169050919050565b600062001a2c82620019ff565b9050919050565b62001a3e8162001a1f565b811462001a4a57600080fd5b50565b60008151905062001a5e8162001a33565b92915050565b600062001a7b62001a7584620019cb565b620019ac565b9050808382526020820190506020840283018581111562001aa15762001aa0620019fa565b5b835b8181101562001ace578062001ab9888262001a4d565b84526020840193505060208101905062001aa3565b5050509392505050565b600082601f83011262001af05762001aef62001931565b5b815162001b0284826020860162001a64565b91505092915050565b600067ffffffffffffffff82111562001b295762001b2862001947565b5b602082029050602081019050919050565b60008115159050919050565b62001b518162001b3a565b811462001b5d57600080fd5b50565b60008151905062001b718162001b46565b92915050565b600062001b8e62001b888462001b0b565b620019ac565b9050808382526020820190506020840283018581111562001bb45762001bb3620019fa565b5b835b8181101562001be1578062001bcc888262001b60565b84526020840193505060208101905062001bb6565b5050509392505050565b600082601f83011262001c035762001c0262001931565b5b815162001c1584826020860162001b77565b91505092915050565b6000819050919050565b62001c338162001c1e565b811462001c3f57600080fd5b50565b60008151905062001c538162001c28565b92915050565b600080600080600060a0868803121562001c785762001c7762001927565b5b600086015167ffffffffffffffff81111562001c995762001c986200192c565b5b62001ca78882890162001ad8565b955050602086015167ffffffffffffffff81111562001ccb5762001cca6200192c565b5b62001cd98882890162001ad8565b945050604086015167ffffffffffffffff81111562001cfd5762001cfc6200192c565b5b62001d0b8882890162001beb565b935050606062001d1e8882890162001a4d565b925050608062001d318882890162001c42565b9150509295509295909350565b7f4e487b7100000000000000000000000000000000000000000000000000000000600052603260045260246000fd5b60006020828403121562001d865762001d8562001927565b5b600062001d968482850162001a4d565b91505092915050565b7f4e487b7100000000000000000000000000000000000000000000000000000000600052601160045260246000fd5b600062001ddb8262001c1e565b915062001de88362001c1e565b925082820190508082111562001e035762001e0262001d9f565b5b92915050565b600062001e168262001c1e565b91507fffffffffffffffffffffffffffffffffffffffffffffffffffffffffffffffff820362001e4b5762001e4a62001d9f565b5b600182019050919050565b600081519050919050565b600082825260208201905092915050565b6000819050602082019050919050565b62001e8d8162001c1e565b82525050565b600062001ea1838362001e82565b60208301905092915050565b6000602082019050919050565b600062001ec78262001e56565b62001ed3818562001e61565b935062001ee08362001e72565b8060005b8381101562001f1757815162001efb888262001e93565b975062001f088362001ead565b92505060018101905062001ee4565b5085935050505092915050565b6000602082019050818103600083015262001f40818462001eba565b905092915050565b60006dffffffffffffffffffffffffffff82169050919050565b62001f6d8162001f48565b811462001f7957600080fd5b50565b60008151905062001f8d8162001f62565b92915050565b600063ffffffff82169050919050565b62001fae8162001f93565b811462001fba57600080fd5b50565b60008151905062001fce8162001fa3565b92915050565b60008060006060848603121562001ff05762001fef62001927565b5b6000620020008682870162001f7c565b9350506020620020138682870162001f7c565b9250506040620020268682870162001fbd565b9150509250925092565b6200203b81620019ff565b81146200204757600080fd5b50565b6000815190506200205b8162002030565b92915050565b60008160020b9050919050565b620020798162002061565b81146200208557600080fd5b50565b60008151905062002099816200206e565b92915050565b600061ffff82169050919050565b620020b8816200209f565b8114620020c457600080fd5b50565b600081519050620020d881620020ad565b92915050565b600060ff82169050919050565b620020f681620020de565b81146200210257600080fd5b50565b6000815190506200211681620020eb565b92915050565b600080600080600080600060e0888a0312156200213e576200213d62001927565b5b60006200214e8a828b016200204a565b9750506020620021618a828b0162002088565b9650506040620021748a828b01620020c7565b9550506060620021878a828b01620020c7565b94505060806200219a8a828b01620020c7565b93505060a0620021ad8a828b0162002105565b92505060c0620021c08a828b0162001b60565b91505092959891949750929550565b60006fffffffffffffffffffffffffffffffff82169050919050565b620021f681620021cf565b81146200220257600080fd5b50565b6000815190506200221681620021eb565b92915050565b60006020828403121562002235576200223462001927565b5b6000620022458482850162002205565b91505092915050565b7f4e487b7100000000000000000000000000000000000000000000000000000000600052601260045260246000fd5b600082825260208201905092915050565b7f68695f7230000000000000000000000000000000000000000000000000000000600082015250565b6000620022c66005836200227d565b9150620022d3826200228e565b602082019050919050565b60006020820190508181036000830152620022f981620022b7565b9050919050565b7f68695f7231000000000000000000000000000000000000000000000000000000600082015250565b6000620023386005836200227d565b9150620023458262002300565b602082019050919050565b600060208201905081810360008301526200236b8162002329565b9050919050565b600081519050919050565b600081905092915050565b60005b83811015620023a85780820151818401526020810190506200238b565b60008484015250505050565b6000620023c18262002372565b620023cd81856200237d565b9350620023df81856020860162002388565b80840191505092915050565b6000620023f98284620023b4565b915081905092915050565b6000602082840312156200241d576200241c62001927565b5b60006200242d8482850162001c42565b91505092915050565b60006200244382620020de565b91506200245083620020de565b9250828203905060ff8111156200246c576200246b62001d9f565b5b92915050565b60008160011c9050919050565b6000808291508390505b6001851115620024d157808604811115620024a957620024a862001d9f565b5b6001851615620024b95780820291505b8081029050620024c98562002472565b945062002489565b94509492505050565b600082620024ec5760019050620025bf565b81620024fc5760009050620025bf565b8160018114620025155760028114620025205762002556565b6001915050620025bf565b60ff84111562002535576200253462001d9f565b5b8360020a9150848211156200254f576200254e62001d9f565b5b50620025bf565b5060208310610133831016604e8410600b8410161715620025905782820a9050838111156200258a576200258962001d9f565b5b620025bf565b6200259f84848460016200247f565b92509050818404811115620025b957620025b862001d9f565b5b81810290505b9392505050565b6000620025d38262001c1e565b9150620025e083620020de565b92506200260f7fffffffffffffffffffffffffffffffffffffffffffffffffffffffffffffffff8484620024da565b905092915050565b6000620026248262001c1e565b9150620026318362001c1e565b9250826200264457620026436200224e565b5b828204905092915050565b60006200265c8262001c1e565b9150620026698362001c1e565b9250817fffffffffffffffffffffffffffffffffffffffffffffffffffffffffffffffff0483118215151615620026a557620026a462001d9f565b5b828202905092915050565b620026bb8162001a1f565b82525050565b600062ffffff82169050919050565b6000819050919050565b6000620026fb620026f5620026ef846200209f565b620026d0565b620026c1565b9050919050565b6200270d81620026da565b82525050565b60006060820190506200272a6000830186620026b0565b620027396020830185620026b0565b62002748604083018462002702565b949350505050565b6000604082019050620027676000830185620026b0565b620027766020830184620026b0565b9392505050565b6000602082019050620027946000830184620026b0565b92915050565b600060208284031215620027b357620027b262001927565b5b6000620027c38482850162002105565b91505092915050565b7f4e487b7100000000000000000000000000000000000000000000000000000000600052600160045260246000fd5b600081519050919050565b60006200281382620027fb565b6200281f81856200227d565b93506200283181856020860162002388565b6200283c8162001936565b840191505092915050565b620028528162001c1e565b82525050565b6000604082019050818103600083015262002874818562002806565b905062002885602083018462002847565b939250505056fe",
        "linkReferences": {}
    },
    "deployedBytecode": {
        "object": "0x608060405234801561001057600080fd5b506004361061002b5760003560e01c80630ed45c8e14610030575b600080fd5b61004a60048036038101906100459190610250565b610060565b60405161005791906102a8565b60405180910390f35b60006020528060005260406000206000915054906101000a90046fffffffffffffffffffffffffffffffff1681565b610125816040516024016100a391906102d2565b6040516020818303038152906040527f2c2ecbc2000000000000000000000000000000000000000000000000000000007bffffffffffffffffffffffffffffffffffffffffffffffffffffffff19166020820180517bffffffffffffffffffffffffffffffffffffffffffffffffffffffff83818316178352505050506101c4565b50565b6101c0828260405160240161013e929190610396565b6040516020818303038152906040527f9710a9d0000000000000000000000000000000000000000000000000000000007bffffffffffffffffffffffffffffffffffffffffffffffffffffffff19166020820180517bffffffffffffffffffffffffffffffffffffffffffffffffffffffff83818316178352505050506101c4565b5050565b60008151905060006a636f6e736f6c652e6c6f679050602083016000808483855afa5050505050565b600080fd5b600073ffffffffffffffffffffffffffffffffffffffff82169050919050565b600061021d826101f2565b9050919050565b61022d81610212565b811461023857600080fd5b50565b60008135905061024a81610224565b92915050565b600060208284031215610266576102656101ed565b5b60006102748482850161023b565b91505092915050565b60006fffffffffffffffffffffffffffffffff82169050919050565b6102a28161027d565b82525050565b60006020820190506102bd6000830184610299565b92915050565b6102cc81610212565b82525050565b60006020820190506102e760008301846102c3565b92915050565b600081519050919050565b600082825260208201905092915050565b60005b8381101561032757808201518184015260208101905061030c565b60008484015250505050565b6000601f19601f8301169050919050565b600061034f826102ed565b61035981856102f8565b9350610369818560208601610309565b61037281610333565b840191505092915050565b6000819050919050565b6103908161037d565b82525050565b600060408201905081810360008301526103b08185610344565b90506103bf6020830184610387565b939250505056fea2646970667358221220ec8cc5c6a50668b6fceb8fbab94e7e8a3bc4ac5c9f4d95e1bfc59219172507d064736f6c63430008100033",
        "linkReferences": {}
    },
    "methodIdentifiers": {
        "tokenToWethPrices(address)": "0ed45c8e"
    },
    "id": 0
}